:020000040800F2
:10000000002000205D140008AD140008AD140008A5
:10001000AD140008AD140008AD1400080000000085
:10002000000000000000000000000000AD14000807
:10003000AD14000800000000AD140008AD14000865
:10004000AD140008AD140008AD140008AD1400088C
:10005000AD140008AD140008AD140008AD1400087C
:10006000AD140008AD140008AD140008AD1400086C
:10007000AD140008AD140008AD140008AD1400085C
:10008000AD140008AD140008AD140008AD1400084C
:10009000AD140008AD140008AD140008AD1400083C
:1000A000AD140008AD140008AD140008AD1400082C
:1000B000AD140008AD140008AD140008AD1400081C
:1000C000AD140008AD140008AD140008AD1400080C
:1000D000AD140008AD140008AD140008AD140008FC
:1000E000AD140008AD140008AD140008AD140008EC
:1000F000AD14000800000000000000000000000037
:0C01000000000000000000005FF808F1A3
:10010C0008B5304B98421ED02F4B984224D02F4B21
:10011C0098422AD02E4B984230D02E4B984236D053
:10012C002D4B98423CD02D4B984242D02C4B9842B0
:10013C0000D008BD2020012100F03CFB2020002134
:10014C0000F038FBF5E70120012100F033FB012022
:10015C00002100F02FFBECE70220012100F02AFB2C
:10016C000220002100F026FBE3E70420012100F02F
:10017C0021FB0420002100F01DFBDAE708200121FF
:10018C0000F018FB0820002100F014FBD1E7102030
:10019C00012100F00FFB1020002100F00BFBC8E741
:1001AC004020012100F006FB4020002100F002FB62
:1001BC00BFE78020012100F0FDFA8020002100F033
:1001CC00F9FAB6E7000002400004024000080240C1
:1001DC00000C02400010024000180240001C0240BB
:1001EC0000140240F0B544465F4656464D46F0B406
:1001FC008C460F68032183B0002400230126884617
:10020C0003E001330234102B26D0321C9A403D1CE3
:10021C0015409542F5D142460168A240D2431140A7
:10022C00016061460979934602680191A14011432E
:10023C00016001990139C9B2012914D9C1685A4622
:10024C000A406546C260EA79C168A2400A4301339C
:10025C00C2600234102BD8D103B03CBC90469946F6
:10026C00A246AB46F0BD81685A4611406246816099
:10027C0052798168A240114381604168624689B21B
:10028C00A9438180917945689940294389B281803D
:10029C00D4E7C046034B03600023037143718371A1
:1002AC00C3717047FFFF0000802382B05B02019393
:1002BC00019B0B430193019BC361C161019BC36112
:1002CC00C3690193C369019302B070470069084088
:1002DC00431E9841C0B27047006980B27047C04657
:1002EC0040690840431E9841C0B27047406980B2D3
:1002FC007047C0460183704741837047002A01D183
:10030C00418370470183FCE78182704743699BB24C
:10031C00594081827047C04607230B40C9088900A9
:10032C00401810B5016A9B000F249C40A143016248
:10033C00016A9A40131C0B43036210BD10B5802454
:10034C006405201C012100F04DFA201C002100F056
:10035C0049FA10BD014B18607047C04620000E4290
:10036C00034BE0211A688A43104318607047C0465B
:10037C0000700040014B18607047C04610000E42E0
:10038C0082B000230193034BC0180190019B1960AC
:10039C0002B07047A0000E42014B18607047C04677
:1003AC0028000E42014B18607047C04624000E42D4
:1003BC00044B054A19680A4010430C2290431860FC
:1003CC007047C04600700040FFE7FFFF0A4B1968FA
:1003DC00002807D1094A0A401A601A6801218A4389
:1003EC001A60704701220A431A6019688022D201F0
:1003FC000A431A60F5E7C04600700040FFBFFFFFDC
:10040C00084B10B51A680324A24310431860064B1E
:10041C0004201A6982431A61012901D020BF10BD42
:10042C0030BFFCE70070004000ED00E00B4B10B556
:10043C001A680324A24310431860094B042218695C
:10044C0002431A61012906D020BF054B04211A6909
:10045C008A431A6110BD30BFF7E7C04600700040F8
:10046C0000ED00E0074B042219681143196018686D
:10047C00022101431960044B19690A431A6130BF08
:10048C007047C0460070004000ED00E0034B5B6815
:10049C001840431E9841C0B27047C04600700040DF
:1004AC00024B80001A6810431860704700700040BF
:1004BC000C4B8022196852000A431A6099680A4A48
:1004CC000A409A601968094A0A401A601968084A71
:1004DC000A401A609968074A0A409A600022DA605A
:1004EC007047C046003802400CC0FF88FEFFFEEE8D
:1004FC00FFFFFBFFFFFF02FF024B00221A70187078
:10050C007047C04602380240002382B0019380221B
:10051C00A0230B499202D8000B6813420BD1019B0C
:10052C0001330193019B8342F6D1054B186880037C
:10053C00C00F02B07047019B01330193019BF4E79C
:10054C0000380240014B18707047C0460738024013
:10055C00034B044A59680A40104358607047C04620
:10056C0000380240FF1FFFFF014B18607047C04668
:10057C0020004742034B044A596800020A401043CA
:10058C005860704700380240FFE0FFFF014B1860D5
:10059C007047C04600004742024B00221A70187088
:1005AC007047C04635380240014B18607047C04652
:1005BC00800647421043024B014319707047C046F6
:1005CC000A380240014B18607047C0466000474231
:1005DC00014B18607047C04670004742014B1860D1
:1005EC007047C046AC064742014B08431870704731
:1005FC000B380240034B03219A688A4310439860DE
:10060C007047C04600380240024B0C209B681840D3
:10061C007047C04600380240034BF0219A688A4369
:10062C00104398607047C04600380240034B044AA0
:10063C0099680A40104398607047C04600380240E1
:10064C00FFF8FFFF034B044A9968C0000A401043AF
:10065C009860704700380240FFC7FFFF294A38B541
:10066C0093680C21041C0B40042B41D031D9082B6E
:10067C0014D00C2B39D19368234D91689B021B0F1E
:10068C00EB5C09029268890FDBB20131D00333D4E1
:10069C001E48584300F0DEF9206002E01C481A4D59
:1006AC002060184B9A681206120FAA18127BD040C1
:1006BC0060609A68011C5205520FAA18127BD14037
:1006CC00A1609B689B045B0FED182B7BD840E0600E
:1006DC0038BD002B09D153681B045B0F80200133FC
:1006EC00000298402060084DDBE7064B5B68F3E79F
:1006FC000648054D2060D4E70548584300F0AAF998
:10070C002060CEE700380240000000200024F400F6
:10071C0000127A00C0239B02021C10B51A409A42A8
:10072C0008D1094B09491C682140C024E40520402C
:10073C0008431860044B0649586B01405963596BC8
:10074C000A435A6310BDC04600380240FFFFFF9FAA
:10075C00FFFFFCFF014B18607047C046D8064742AC
:10076C00014B18607047C046DC064742044BDA69FF
:10077C00002902D18243DA6170471043D861FBE74C
:10078C0000380240044B1A6A002902D182431A62D3
:10079C00704710431862FBE700380240044B5A6A5A
:1007AC00002902D182435A62704710435862FBE71A
:1007BC0000380240044B1A69002902D182431A61A5
:1007CC00704710431861FBE700380240044B5A692C
:1007DC00002902D182435A61704710435861FBE7EC
:1007EC0000380240044B9A69002902D182439A6175
:1007FC00704710439861FBE700380240044B9A6A3B
:10080C00002902D182439A62704710439862FBE739
:10081C0000380240044BDA6A002902D18243DA62C2
:10082C0070471043D862FBE700380240044B1A6B48
:10083C00002902D182431A63704710431863FBE707
:10084C0000380240044B1A78002902D182431A70F6
:10085C00704710431870FBE70D3802404309012B19
:10086C0008D0064B5B6B1F221040C340181C0123A1
:10087C0018407047014B1B68F5E7C0460038024032
:10088C00034B8022596B52040A435A637047C0468B
:10089C0000380240034BDB681840431E9841C0B23D
:1008AC007047C04600380240014B18707047C04674
:1008BC000E38024010B58024A400201C0121FFF743
:1008CC0091FF201C0021FFF78DFF10BD10B50E4CC1
:1008DC000E4B6268134063600168636842680B43A7
:1008EC00134363602021A368074A1942FBD01368A5
:1008FC007E218B431360816813680B43C1680B43E3
:10090C0001690B43136010BD00240040FFFF03FC82
:10091C000023036043608360C36003617047C0467B
:10092C00014B18607047C0460080044202492022E7
:10093C008B681A42FCD0704700240040014B1860B1
:10094C007047C04680800442014B18607047C04617
:10095C001C800442044B70215A688A435A605A68BE
:10096C00104358607047C04600240040044B054AB1
:10097C0059680A405A605A68104358607047C0461C
:10098C00002400407FFCFFFF054B10B5054A5C6856
:10099C0022405A605A6811430843586010BDC04643
:1009AC0000240040FF1FFCFF044B054A59680A4015
:1009BC005A605A68104358607047C0460024004083
:1009CC00FFE3FFFF024B8000C01841607047C04638
:1009DC0010240040014B01221A6070470881044228
:1009EC00044B5A68002902D182435A607047104365
:1009FC005860FBE700240040034B9B681840431EE3
:100A0C009841C0B27047C04600240040014BD860EA
:100A1C007047C04600240040054B99685A68002373
:100A2C00024203D00840411E8841C3B2181C7047D3
:100A3C0000240040014BD8607047C04600240040A1
:100A4C0003B47146490840004900095A49008E44D4
:100A5C0003BC7047002934D00123002210B4884213
:100A6C002CD301242407A14204D2814202D20901D1
:100A7C001B01F8E7E400A14204D2814202D24900F2
:100A8C005B00F8E7884201D3401A1A434C08A04295
:100A9C0002D3001B5C0822438C08A04202D3001B2B
:100AAC009C082243CC08A04202D3001BDC08224342
:100ABC00002803D01B0901D00909E3E7101C10BC66
:100ACC007047002801D00020C04307B4024802A19F
:100ADC004018029003BDC046D90000000029F0D098
:100AEC0003B5FFF7B9FF0EBC4243891A1847C0463D
:100AFC00002941D010B4041C4C40A4460123002210
:100B0C00002900D54942002800D5404288422CD308
:100B1C0001242407A14204D2814202D209011B0103
:100B2C00F8E7E400A14204D2814202D249005B0002
:100B3C00F8E7884201D3401A1A434C08A04202D36A
:100B4C00001B5C0822438C08A04202D3001B9C08AB
:100B5C002243CC08A04202D3001BDC08224300280D
:100B6C0003D01B0901D00909E3E7101C6446002CD3
:100B7C0000D5404210BC7047002806D003DB002093
:100B8C00C043400801E08020000607B4024802A1DF
:100B9C004018029003BDC046190000000029EBD09C
:100BAC0003B5FFF7A7FF0EBC4243891A1847C0468E
:100BBC007047C046094B0A4A596A11405962D96AB2
:100BCC000A40DA62074A586A1178090301435962EC
:100BDC005278D96A12030A43DA6270470024004043
:100BEC00FF5FFFFF1C000020F0B5047885B02F2CB0
:100BFC0020D00CD8252C1FD003D80027202C30D087
:100C0C001DE02A2C2CD0A0272D2C16D017E06D2CF3
:100C1C000CD005D8392C12D8303C6400D5481DE0D6
:100C2C006E2C05D0FF2C0AD1D34F1AE0D34F18E00D
:100C3C00D34F16E0C02714E0B3273F0211E0201C6D
:100C4C004138C5B20027192D02D8CE4D4000475B64
:100C5C00613CE0B2192804D8CA486400275A00E065
:100C6C00C94F002901D002210F43002A01D02022B4
:100C7C0017433A133911581E0192D5B23C0AC9B226
:100C8C00FAB2052800D970E1C04BFFF7D9FE060077
:100C9C0036008000B400E9001E015E69BC480640C5
:100CAC005E61DE690640DE615E6A06405E62DE6A97
:100CBC003040D8625E69281C02960C2630408006B3
:100CCC0084460320674605403D43029F3D43271C55
:100CDC005D613740DD69BF0604403C432C430D1C6D
:100CEC00DC6135405C6AAD06014029432143164066
:100CFC005962D96AB6060240B0E05E69A5482F1C5D
:100D0C0006405E61DE690640DE615E6A06405E6238
:100D1C00DE6A3040D8625869022603900C20844663
:100D2C00374028400006BF01074301200540B5406D
:100D3C003D43039F3D43271C5D613740DD69BF0187
:100D4C000397674602952740039D04403F06B44035
:100D5C002F43029D27433D43DD610F1C6546374001
:100D6C000D402D06BF0101402F435C6A8D00391CDC
:100D7C0029432143644616401440B6012406104012
:100D8C00264359628000321CD96A0243EBE05E694B
:100D9C00814806405E61DE690640DE615E6A06409F
:100DAC005E62DE6A3040D8625E69281C02960326B9
:100DBC003040000284460C2005406746AD053D439B
:100DCC00029F3D43271C5D6137400440DD693F02B3
:100DDC00A4053C432C430D1CDC61354001405C6A8E
:100DEC002D02890529432143164059620240D96AD4
:100DFC003602920532E05E69684806405E61DE6943
:100E0C000640DE615E6A06405E62DE6A3040D86291
:100E1C00586903260290281C3040800284460C201E
:100E2C0005406746AD043D43029F3D43271C5D6171
:100E3C0037400440DD69BF02A4043C432C430D1C25
:100E4C00DC61354001405C6AAD02890429432143D1
:100E5C0059621640D96A0240B6029204324382E0CB
:100E6C005E694F4806405E61DE693040D8615E6A5B
:100E7C004C4806405E62DE6A3040D86258690326F0
:100E8C000290281C3040000384460C200540674625
:100E9C002D043D43029F26403D435D610440DD69C6
:100EAC008640240434432C43DC610E1C0124264070
:100EBC0001405D6A8640090431432943144059625C
:100ECC000240D96A844012044CE05F6936480740FE
:100EDC005F61DF690740DF615F6A07405F62DF6A5D
:100EEC003840D86258692F1C039004200740FF0338
:100EFC00BC4608273D4066466D033543AC46019D14
:100F0C00AE07360C65463543039E3543261C3E40E2
:100F1C005D617603DD69B446261C06400395F60335
:100F2C0065463543A407260C2C1C3443039E3443DE
:100F3C00DC610E1C0C1C3E400440E403760326438B
:100F4C0001242140B4465D6A8E0361463143294336
:100F5C001740104059627F03C00314403843D96ACC
:100F6C00A403021C22430A43DA62FFF723FE05B0F6
:100F7C00F0BDC0463C150008DDFF000010B20000BB
:100F8C0010220000F8140008DDA00000002400402E
:100F9C00FCFFFFCF03FFFFF3FFFCFFFCFFF3CFFFD2
:100FAC00FFCFF3FFFFEFF3FFFF3FFCFF38B5051C4E
:100FBC000420FFF721FD0028FAD12C1C631B013300
:100FCC00DBB20022072B08D82178914205D0201CD7
:100FDC00111CFFF709FE0134F0E7FFF7FBFC38BDED
:100FEC0008B50420FFF708FD0028FAD1054A830054
:100FFC009B18013000225A601028F7D1FFF7EAFC49
:10100C0008BDC0461024004037B501213F20FFF732
:10101C00ADFB6846FFF73EF9564C574B0225009343
:10102C00201C6B4669461D71FFF7DCF8201C012162
:10103C000B22FFF771F9291C201C0B22FFF76CF90E
:10104C00201C03210B22FFF767F9201C08210B221F
:10105C00FFF762F9201C09210B22FFF75DF9201C18
:10106C000A210B22FFF758F9201C0B220F21434CAD
:10107C00FFF752F9424B201C009369466B461D71D9
:10108C00FFF7B0F8201C03210B22FFF745F9201CB9
:10109C0004210B22FFF740F9201C05210B22FFF73E
:1010AC003BF9201C08210B22FFF736F9201C0921E3
:1010BC000B22FFF731F9201C0A210B22FFF72CF928
:1010CC000B21201C0A1CFFF727F9201C0C210B22DA
:1010DC00FFF722F9201C0D210B22FFF71DF9201C14
:1010EC000E210B22FFF718F9201C0B220F21254C87
:1010FC00FFF712F9244B201C009369466B461D71B7
:10110C00FFF770F8201C00210B22FFF705F9201CBB
:10111C0001210B22FFF700F9291C201C0B22FFF7E1
:10112C00FBF8201C03210B22FFF7F6F8201C0621EC
:10113C000B22FFF7F1F8201C07210B22FFF7ECF82C
:10114C00201C08210B22FFF7E7F8201C09210B2299
:10115C00FFF7E2F8201C0A210B22FFF7DDF80B2128
:10116C000A1C201CFFF7D8F83F200021FFF7FEFADD
:10117C0037BDC046000002400E870000000402404C
:10118C0038FF000000080240CF0F000030B5F023FC
:10119C0087B09B030024029340250C2301A80393E2
:1011AC00019404950594FFF791FB0120FFF7CCFB0C
:1011BC0080204001FFF7F8FB201CFFF7D7FB281C11
:1011CC00FFF7C8FBFFF7B2FB0120FFF7A9FB0120DB
:1011DC00FFF712FC0028FAD01020FFF70DFC0028B6
:1011EC00FAD080210020C901FFF7CEFBFFF7F8FEF3
:1011FC0007B030BD08B510480121FFF7CFFA012127
:10120C000E48FFF7BFFA0120FFF7A4F80120FFF703
:10121C00A7FA0020FFF7A4FA0120FFF7BDF9492037
:10122C00FFF71CFB0028FAD080204002FFF772FA6F
:10123C000120FFF78FFA08BD000200100102000028
:10124C0082B000230093009B834205DA019B01339B
:10125C000193009B0133F5E702B07047F0B587B0FE
:10126C00002302926A46041C0391049393829375A3
:10127C0098424ED0031C1F781E1BF6B2002F01D0D3
:10128C000133F8E7201CFFF791FE0298FFF7D8FF17
:10129C00039A97423DD201256B1C01936B1EDBB266
:1012AC00B34233D2281C311CFFF778FC635C6A46CE
:1012BC0013740198311CFFF771FC635C6A4653741C
:1012CC00A81C311CFFF76AFC635C6A469374E81C2B
:1012DC00311CFFF763FC635C6A46D374281D311C18
:1012EC00FFF75CFC635C6A461375681D311CFFF7E5
:1012FC0055FC635C6A465375FFF772FE04A8FFF752
:10130C0055FE0298FFF79CFF019DC5E70137FFB220
:10131C00BEE707B0F0BD000008B5FFF76BFFFFF7A5
:10132C0073FEFFF733FF03486421034AFFF796FF70
:10133C00FEE7C0462C15000850C300003C4B37B5E7
:10134C001968802252000A431A609968394A0A4087
:10135C009A601968384A0A401A601968374A0A4074
:10136C001A609A6836490A409A600022DA60009244
:10137C00019218688022520202431A60081C1968F4
:10138C008022920211400191009901310091019942
:10139C00002904D1009CA021C9018C42EFD119680D
:1013AC000A4000D0012201920199012904D0254B59
:1013BC00802212059A6037BD234A042514682C43F9
:1013CC001460146802252C431460146821431160C6
:1013DC00596A802252050A435A6280211B4A09012C
:1013EC0011605168CC06FCD49A689A609A689A602D
:1013FC009A689A60996891220140996099681204E0
:10140C000A439A601968802252040A431A601968C8
:10141C00074A8801FBD59068032188439060906847
:10142C000143916099680C220A400C2AFAD1BEE75C
:10143C00003802400CC0FF88FEFFFEEEFFFFFBFFF2
:10144C00FFFF02FF00ED00E0003C02400070004096
:10145C00002100F004B80D4B5B58435004310C488C
:10146C000C4B42189A42FFF4F6AF0B4A00F003B84B
:10147C00002342F8043B094B9A42FFF4F9AFFFF703
:10148C005DFF00F00FF8FFF747FF70476815000885
:10149C00000000201C0000201C0000202000002068
:1014AC00FFF7FEBF70B50D4E0D4D0024AD1BAD10FA
:1014BC0005D0A300F35801349847A542F9D100F0A8
:1014CC0041F8084E084D0024AD1BAD1005D0A3000B
:1014DC00F35801349847A542F9D170BD00000000C3
:1014EC0000000000000000000000000000FE146777
:1014FC00001D1447009D009C003F00FA140000538F
:10150C0041980019485A095A005F00FC015F01FC20
:10151C0000AF1404005BC018815AC9005800C00504
:10152C002A2048656C6C6F20576F726C64202A00FF
:10153C00005F004200F5006700EA00AF00BF004604
:10154C0000FF00EFF8B5C046F8BC08BC9E467047DB
:0C155C00F8B5C046F8BC08BC9E467047BD
:10156800030406080C1018203000000000000000DA
:0C15780001020304010203040607080935
:040000050800145D7E
:00000001FF
