:020000040800F2
:1000000000200020D10E0008210F0008210F000859
:10001000210F0008210F0008210F00080000000038
:10002000000000000000000000000000210F000898
:10003000210F000800000000210F0008210F000818
:10004000210F0008210F0008210F0008210F0008D0
:10005000210F0008210F0008210F0008210F0008C0
:10006000210F0008210F0008210F0008210F0008B0
:10007000210F0008210F0008210F0008210F0008A0
:10008000210F0008210F0008210F0008210F000890
:10009000210F0008210F0008210F0008210F000880
:1000A000210F0008210F0008210F0008210F000870
:1000B000210F0008210F0008210F0008210F000860
:1000C000210F0008210F0008210F0008210F000850
:1000D000210F0008210F0008210F0008210F000840
:1000E000210F0008210F0008210F0008210F000830
:1000F000210F0008000000000000000000000000C8
:0C01000000000000000000005FF808F1A3
:10010C0008B5074B984200D008BD80208000012123
:10011C0000F0F4FC80208000002100F0EFFCF3E7FD
:10012C00002401404268104B10B513400A68134379
:10013C000A79120213434360CA680B6984681A4334
:10014C008B681A43094B234013434A7952001343DB
:10015C008360026B064B13400A7D013AD2B2120542
:10016C001343036310BDC046FFFEFFFCFDF7FFC049
:10017C00FFFF0FFE0023C0220360037143718360F5
:10018C00920403610123C26003757047034B044A58
:10019C0059680A4001680A435A60704700270140B9
:1001AC00FFFFFCFF002303607047C046002904D109
:1001BC008368012293438360704782680123134351
:1001CC008360F9E7002904D1836804229343836098
:1001DC0070478268042313438360F9E74368002A5D
:1001EC0002D18B434360704719434160FBE7C04623
:1001FC008368F02293431943816070474268024B35
:10020C001340194341607047FFFD3FFF8162C2629A
:10021C007047C04643681F2293431943416070479F
:10022C00064B5968002803D1054A0A405A607047AA
:10023C00802212040A435A60F9E7C04600270140A5
:10024C00FFFF7FFF70B51D2920D90D1C1E3D6C00D2
:10025C006419C66D0725A540A340AE431C1C331C76
:10026C002343C365062A22D90C2A3CD9122A5ED90B
:10027C00182A50D9193A9400A218036B1F249440E1
:10028C009140A3430A1C1A43026337E013291AD97D
:10029C000D1C143D6C006419C6680725A540A340CD
:1002AC00AE431C1C331C2343C360062ADCD8013A22
:1002BC009400A218036C1F2494409140A3430A1C81
:1002CC001A4302641AE0092919D90D1C0A3D6C0065
:1002DC00641906690725A540A340AE431C1C331CBA
:1002EC0023430361BEE7073A9400A218C36B1F2493
:1002FC0094409140A3430A1C1A43C26370BD4C0046
:10030C00641845690726A640A340B5431C1C2B1C4A
:10031C0023434361A6E7133A9400A218436B1F24AE
:10032C0094409140A3430A1C1A434263E6E70D3AFA
:10033C009400A218836B1F2494409140A3430A1C81
:10034C001A438263DAE7C04682688023DB051343D5
:10035C008360704780684000C00F70478268002936
:10036C0003D1044B1340836070478023DB0013439D
:10037C008360F9E7FFFBFFFF002904D183680222A9
:10038C009343836070478268022313438360F9E7C9
:10039C004268034B013913404903194341607047CC
:1003AC00FF1FFFFF4268002903D1044B1340436039
:1003BC00704780231B0113434360F9E7FFF7FFFFEE
:1003CC00806D80B27047C0468268002903D1044B0F
:1003DC0013408360704780235B0013438360F9E70D
:1003EC00FFFEFFFF8268002903D1044B134083609A
:1003FC00704780239B0013438360F9E7FFFDFFFFE9
:10040C0070B51D292BD813291BD8092935D84C00B8
:10041C00641845690726A640A340B5431C1C2B1C39
:10042C0023434361446C0232A3029B0FD31ADBB209
:10043C009A00D3181F229A40944399400C43446469
:10044C0070BD0D1C143D6C006419C6680725A540D1
:10045C00A340AE431C1C331C2343C360E2E70D1CBA
:10046C001E3D6C006419C66D0725A540A340AE4324
:10047C001C1C331C2343C365D4E70D1C0A3D6C00C4
:10048C00641906690725A540A340AE431C1C331C08
:10049C0023430361C6E7C046426C034B013913404A
:1004AC000905194341647047FFFFCFFF82B0002359
:1004BC0001930190019BC9180191019B1A6002B034
:1004CC007047C0468268024B1340194381607047E5
:1004DC00FFFFF0FF8268024B1340194381607047A5
:1004EC00FFFFCFFF82688023DB03134383607047D9
:1004FC0080684002C00F70474268002903D1044B4A
:10050C001340436070478023DB0013434360F9E7DB
:10051C00FFFBFFFF4268002903D1044B13404360EB
:10052C00704780235B0113434360F9E7FFEFFFFF44
:10053C0082B0002301930190019B30335918019133
:10054C00019B186880B202B07047C046C9B2012343
:10055C008B40191C4368002A02D18B4343607047BF
:10056C0019434160FBE7C04600680840431E9841B0
:10057C00C0B27047C94301607047C04610B54468AB
:10058C0002680B0A00201A4206D0C9B2012088402A
:10059C000440601E8441E0B210BDC046090AC94344
:1005AC000160704708B5304B98421ED02F4B9842D3
:1005BC0024D02F4B98422AD02E4B984230D02E4B21
:1005CC00984236D02D4B98423CD02D4B984242D07D
:1005DC002C4B984200D008BD2020012100F082FA5B
:1005EC002020002100F07EFAF5E70120012100F027
:1005FC0079FA0120002100F075FAECE702200121C4
:10060C0000F070FA0220002100F06CFAE3E70420FD
:10061C00012100F067FA0420002100F063FADAE708
:10062C000820012100F05EFA0820002100F05AFA9F
:10063C00D1E71020012100F055FA1020002100F024
:10064C0051FAC8E74020012100F04CFA402000216B
:10065C0000F048FABFE78020012100F043FA802027
:10066C00002100F03FFAB6E700000240000402400F
:10067C0000080240000C024000100240001802402A
:10068C00001C024000140240F0B544465F4656463A
:10069C004D46F0B48C460F68032183B00024002330
:1006AC000126884603E001330234102B26D0321C7D
:1006BC009A403D1C15409542F5D142460168A24036
:1006CC00D243114001606146097993460268019159
:1006DC00A1401143016001990139C9B2012914D912
:1006EC00C1685A460A406546C260EA79C168A240B0
:1006FC000A430133C2600234102BD8D103B03CBC86
:10070C0090469946A246AB46F0BD81685A461140C8
:10071C006246816052798168A240114381604168D0
:10072C00624689B2A94381809179456899402943F1
:10073C0089B28180D4E7C046034B03600023037168
:10074C0043718371C3717047FFFF0000802382B037
:10075C005B020193019B0B430193019BC361C1613C
:10076C00019BC361C3690193C369019302B07047D4
:10077C0000690840431E9841C0B27047006980B2BE
:10078C007047C04640690840431E9841C0B270474C
:10079C00406980B27047C0460183704741837047FF
:1007AC00002A01D1418370470183FCE781827047A5
:1007BC0043699BB2594081827047C04607230B4066
:1007CC00C9088900401810B5016A9B000F249C4091
:1007DC00A1430162016A9A40131C0B43036210BDD2
:1007EC000C4B8022196852000A431A6099680A4A15
:1007FC000A409A601968094A0A401A601968084A3E
:10080C000A401A609968074A0A409A600022DA6026
:10081C007047C046003802400CC0FF88FEFFFEEE59
:10082C00FFFFFBFFFFFF02FF024B00221A70187044
:10083C007047C04602380240002382B001938022E8
:10084C00A0230B499202D8000B6813420BD1019BD9
:10085C0001330193019B8342F6D1054B1868800349
:10086C00C00F02B07047019B01330193019BF4E769
:10087C0000380240014B18707047C04607380240E0
:10088C00034B044A59680A40104358607047C046ED
:10089C0000380240FF1FFFFF014B18607047C04635
:1008AC0020004742034B044A596800020A40104397
:1008BC005860704700380240FFE0FFFF014B1860A2
:1008CC007047C04600004742024B00221A70187055
:1008DC007047C04635380240014B18607047C0461F
:1008EC00800647421043024B014319707047C046C3
:1008FC000A380240014B18607047C04660004742FE
:10090C00014B18607047C04670004742014B18609D
:10091C007047C046AC064742014B084318707047FD
:10092C000B380240034B03219A688A4310439860AA
:10093C007047C04600380240024B0C209B681840A0
:10094C007047C04600380240034BF0219A688A4336
:10095C00104398607047C04600380240034B044A6D
:10096C0099680A40104398607047C04600380240AE
:10097C00FFF8FFFF034B044A9968C0000A4010437C
:10098C009860704700380240FFC7FFFF294A38B50E
:10099C0093680C21041C0B40042B41D031D9082B3B
:1009AC0014D00C2B39D19368234D91689B021B0FEB
:1009BC00EB5C09029268890FDBB20131D00333D4AE
:1009CC001E48584300F00EF9206002E01C481A4DF6
:1009DC002060184B9A681206120FAA18127BD0408E
:1009EC0060609A68011C5205520FAA18127BD14004
:1009FC00A1609B689B045B0FED182B7BD840E060DB
:100A0C0038BD002B09D153681B045B0F80200133C8
:100A1C00000298402060084DDBE7064B5B68F3E76B
:100A2C000648054D2060D4E70548584300F0DAF835
:100A3C002060CEE700380240000000200024F400C3
:100A4C0000127A00C0239B02021C10B51A409A4275
:100A5C0008D1094B09491C682140C024E4052040F9
:100A6C0008431860044B0649586B01405963596B95
:100A7C000A435A6310BDC04600380240FFFFFF9F77
:100A8C00FFFFFCFF014B18607047C046D806474279
:100A9C00014B18607047C046DC064742044BDA69CC
:100AAC00002902D18243DA6170471043D861FBE719
:100ABC0000380240044B1A6A002902D182431A62A0
:100ACC00704710431862FBE700380240044B5A6A27
:100ADC00002902D182435A62704710435862FBE7E7
:100AEC0000380240044B1A69002902D182431A6172
:100AFC00704710431861FBE700380240044B5A69F9
:100B0C00002902D182435A61704710435861FBE7B8
:100B1C0000380240044B9A69002902D182439A6141
:100B2C00704710439861FBE700380240044B9A6A07
:100B3C00002902D182439A62704710439862FBE706
:100B4C0000380240044BDA6A002902D18243DA628F
:100B5C0070471043D862FBE700380240044B1A6B15
:100B6C00002902D182431A63704710431863FBE7D4
:100B7C0000380240044B1A78002902D182431A70C3
:100B8C00704710431870FBE70D3802404309012BE6
:100B9C0008D0064B5B6B1F221040C340181C01236E
:100BAC0018407047014B1B68F5E7C04600380240FF
:100BBC00034B8022596B52040A435A637047C04658
:100BCC0000380240034BDB681840431E9841C0B20A
:100BDC007047C04600380240014B18707047C04641
:100BEC000E380240002934D00123002210B4884270
:100BFC002CD301242407A14204D2814202D2090140
:100C0C001B01F8E7E400A14204D2814202D2490060
:100C1C005B00F8E7884201D3401A1A434C08A04203
:100C2C0002D3001B5C0822438C08A04202D3001B99
:100C3C009C082243CC08A04202D3001BDC082243B0
:100C4C00002803D01B0901D00909E3E7101C10BCD4
:100C5C007047002801D00020C04307B4024802A10D
:100C6C004018029003BDC046190000000029F0D0C6
:100C7C0003B5FFF7B9FF0EBC4243891A1847C046AB
:100C8C007047C04682B000230093009B834205DA74
:100C9C00019B01330193009B0133F5E702B07047D0
:100CAC0070B50120FFF70AFE2120FFF76FFF002827
:100CBC00FAD00120011CFFF7F1FE02200121FFF701
:100CCC00EDFE802001218000FFF7F4FE304C002661
:100CDC00201CFFF731FD202323602E480323211C09
:100CEC0001252371E671FFF7CFFC80232A48211CD4
:100CFC00236025716571E571FFF7C6FC4023211C4B
:100D0C002548236025716571E571FFF7BDFC23480B
:100D1C0080235B020360FFF739FA214921480E60FA
:100D2C000D714D718E600E610D75FFF7FBF91D484D
:100D3C0005212A1C0223FFF785FA1A48291CFFF704
:100D4C0035FA18484021FFF70FFC0028F9D0154858
:100D5C00FFF7FAFA1348FFF733FBFA23DB0098424C
:100D6C0003D90D484021012202E00B48402100220A
:100D7C00FFF716FD0C4B186842424241D2B20648AE
:100D8C0080211A60FFF70CFD0848FFF77BFFE1E7B5
:100D9C003800002000000240000402404400002003
:100DAC0020000020002401401C00002050C3000043
:100DBC003C4B37B51968802252000A431A60996877
:100DCC00394A0A409A601968384A0A401A60196808
:100DDC00374A0A401A609A6836490A409A600022DB
:100DEC00DA600092019218688022520202431A6063
:100DFC00081C19688022920211400191009901315E
:100E0C0000910199002904D1009CA021C9018C42B8
:100E1C00EFD119680A4000D00122019201990129F1
:100E2C0004D0254B802212059A6037BD234A042535
:100E3C0014682C431460146802252C431460146845
:100E4C0021431160596A802252050A435A6280215B
:100E5C001B4A090111605168CC06FCD49A689A604F
:100E6C009A689A609A689A60996891220140996090
:100E7C00996812040A439A601968802252040A4342
:100E8C001A601968074A8801FBD5906803218843CA
:100E9C00906090680143916099680C220A400C2A7A
:100EAC00FAD1BEE7003802400CC0FF88FEFFFEEE10
:100EBC00FFFFFBFFFFFF02FF00ED00E0003C0240E4
:100ECC0000700040002100F004B80D4B5B584350FB
:100EDC0004310C480C4B42189A42FFF4F6AF0B4A03
:100EEC0000F003B8002342F8043B094B9A42FFF48C
:100EFC00F9AFFFF75DFF00F00FF8FFF7D1FE704779
:100F0C00840F0008000000201C0000201C000020A2
:100F1C0048000020FFF7FEBF70B50D4E0D4D0024AC
:100F2C00AD1BAD1005D0A300F35801349847A54272
:100F3C00F9D100F015F8084E084D0024AD1BAD108A
:100F4C0005D0A300F35801349847A542F9D170BDE0
:100F5C000000000000000000000000000000000085
:100F6C00F8B5C046F8BC08BC9E467047F8B5C046FC
:080F7C00F8BC08BC9E4670475A
:100F8400030406080C1018203000000000000000C4
:0C0F94000102030401020304060708091F
:0400000508000ED110
:00000001FF
