:020000040800F2
:1000000000200020A5210008F5210008F5210008A6
:10001000F5210008F5210008F52100080000000086
:10002000000000000000000000000000F5210008B2
:10003000F521000800000000F5210008F521000866
:10004000F5210008F5210008F5210008F521000838
:10005000F5210008F5210008F5210008F521000828
:10006000F5210008F5210008F5210008F521000818
:10007000F5210008F5210008F5210008F521000808
:10008000F5210008F5210008F5210008F5210008F8
:10009000F5210008F5210008F5210008F5210008E8
:1000A000F5210008F5210008F5210008F5210008D8
:1000B000F5210008F5210008F5210008F5210008C8
:1000C000F5210008F5210008F5210008F5210008B8
:1000D000F5210008F5210008F5210008F5210008A8
:1000E000F5210008F5210008F5210008F521000898
:1000F000F5210008000000000000000000000000E2
:0C01000000000000000000005FF808F1A3
:10010C0008B5304B98421ED02F4B984224D02F4B21
:10011C0098422AD02E4B984230D02E4B984236D053
:10012C002D4B98423CD02D4B984242D02C4B9842B0
:10013C0000D008BD2020012100F03CFB2020002134
:10014C0000F038FBF5E70120012100F033FB012022
:10015C00002100F02FFBECE70220012100F02AFB2C
:10016C000220002100F026FBE3E70420012100F02F
:10017C0021FB0420002100F01DFBDAE708200121FF
:10018C0000F018FB0820002100F014FBD1E7102030
:10019C00012100F00FFB1020002100F00BFBC8E741
:1001AC004020012100F006FB4020002100F002FB62
:1001BC00BFE78020012100F0FDFA8020002100F033
:1001CC00F9FAB6E7000002400004024000080240C1
:1001DC00000C02400010024000180240001C0240BB
:1001EC0000140240F0B544465F4656464D46F0B406
:1001FC008C460F68032183B0002400230126884617
:10020C0003E001330234102B26D0321C9A403D1CE3
:10021C0015409542F5D142460168A240D2431140A7
:10022C00016061460979934602680191A14011432E
:10023C00016001990139C9B2012914D9C1685A4622
:10024C000A406546C260EA79C168A2400A4301339C
:10025C00C2600234102BD8D103B03CBC90469946F6
:10026C00A246AB46F0BD81685A4611406246816099
:10027C0052798168A240114381604168624689B21B
:10028C00A9438180917945689940294389B281803D
:10029C00D4E7C046034B03600023037143718371A1
:1002AC00C3717047FFFF0000802382B05B02019393
:1002BC00019B0B430193019BC361C161019BC36112
:1002CC00C3690193C369019302B070470069084088
:1002DC00431E9841C0B27047006980B27047C04657
:1002EC0040690840431E9841C0B27047406980B2D3
:1002FC007047C0460183704741837047002A01D183
:10030C00418370470183FCE78182704743699BB24C
:10031C00594081827047C04607230B40C9088900A9
:10032C00401810B5016A9B000F249C40A143016248
:10033C00016A9A40131C0B43036210BD10B5802454
:10034C006405201C012100F04DFA201C002100F056
:10035C0049FA10BD014B18607047C04620000E4290
:10036C00034BE0211A688A43104318607047C0465B
:10037C0000700040014B18607047C04610000E42E0
:10038C0082B000230193034BC0180190019B1960AC
:10039C0002B07047A0000E42014B18607047C04677
:1003AC0028000E42014B18607047C04624000E42D4
:1003BC00044B054A19680A4010430C2290431860FC
:1003CC007047C04600700040FFE7FFFF0A4B1968FA
:1003DC00002807D1094A0A401A601A6801218A4389
:1003EC001A60704701220A431A6019688022D201F0
:1003FC000A431A60F5E7C04600700040FFBFFFFFDC
:10040C00084B10B51A680324A24310431860064B1E
:10041C0004201A6982431A61012901D020BF10BD42
:10042C0030BFFCE70070004000ED00E00B4B10B556
:10043C001A680324A24310431860094B042218695C
:10044C0002431A61012906D020BF054B04211A6909
:10045C008A431A6110BD30BFF7E7C04600700040F8
:10046C0000ED00E0074B042219681143196018686D
:10047C00022101431960044B19690A431A6130BF08
:10048C007047C0460070004000ED00E0034B5B6815
:10049C001840431E9841C0B27047C04600700040DF
:1004AC00024B80001A6810431860704700700040BF
:1004BC000C4B8022196852000A431A6099680A4A48
:1004CC000A409A601968094A0A401A601968084A71
:1004DC000A401A609968074A0A409A600022DA605A
:1004EC007047C046003802400CC0FF88FEFFFEEE8D
:1004FC00FFFFFBFFFFFF02FF024B00221A70187078
:10050C007047C04602380240002382B0019380221B
:10051C00A0230B499202D8000B6813420BD1019B0C
:10052C0001330193019B8342F6D1054B186880037C
:10053C00C00F02B07047019B01330193019BF4E79C
:10054C0000380240014B18707047C0460738024013
:10055C00034B044A59680A40104358607047C04620
:10056C0000380240FF1FFFFF014B18607047C04668
:10057C0020004742034B044A596800020A401043CA
:10058C005860704700380240FFE0FFFF014B1860D5
:10059C007047C04600004742024B00221A70187088
:1005AC007047C04635380240014B18607047C04652
:1005BC00800647421043024B014319707047C046F6
:1005CC000A380240014B18607047C0466000474231
:1005DC00014B18607047C04670004742014B1860D1
:1005EC007047C046AC064742014B08431870704731
:1005FC000B380240034B03219A688A4310439860DE
:10060C007047C04600380240024B0C209B681840D3
:10061C007047C04600380240034BF0219A688A4369
:10062C00104398607047C04600380240034B044AA0
:10063C0099680A40104398607047C04600380240E1
:10064C00FFF8FFFF034B044A9968C0000A401043AF
:10065C009860704700380240FFC7FFFF294A38B541
:10066C0093680C21041C0B40042B41D031D9082B6E
:10067C0014D00C2B39D19368234D91689B021B0F1E
:10068C00EB5C09029268890FDBB20131D00333D4E1
:10069C001E48584300F08EFF206002E01C481A4DA3
:1006AC002060184B9A681206120FAA18127BD040C1
:1006BC0060609A68011C5205520FAA18127BD14037
:1006CC00A1609B689B045B0FED182B7BD840E0600E
:1006DC0038BD002B09D153681B045B0F80200133FC
:1006EC00000298402060084DDBE7064B5B68F3E79F
:1006FC000648054D2060D4E70548584300F05AFFE2
:10070C002060CEE700380240000000200024F400F6
:10071C0000127A00C0239B02021C10B51A409A42A8
:10072C0008D1094B09491C682140C024E40520402C
:10073C0008431860044B0649586B01405963596BC8
:10074C000A435A6310BDC04600380240FFFFFF9FAA
:10075C00FFFFFCFF014B18607047C046D8064742AC
:10076C00014B18607047C046DC064742044BDA69FF
:10077C00002902D18243DA6170471043D861FBE74C
:10078C0000380240044B1A6A002902D182431A62D3
:10079C00704710431862FBE700380240044B5A6A5A
:1007AC00002902D182435A62704710435862FBE71A
:1007BC0000380240044B1A69002902D182431A61A5
:1007CC00704710431861FBE700380240044B5A692C
:1007DC00002902D182435A61704710435861FBE7EC
:1007EC0000380240044B9A69002902D182439A6175
:1007FC00704710439861FBE700380240044B9A6A3B
:10080C00002902D182439A62704710439862FBE739
:10081C0000380240044BDA6A002902D18243DA62C2
:10082C0070471043D862FBE700380240044B1A6B48
:10083C00002902D182431A63704710431863FBE707
:10084C0000380240044B1A78002902D182431A70F6
:10085C00704710431870FBE70D3802404309012B19
:10086C0008D0064B5B6B1F221040C340181C0123A1
:10087C0018407047014B1B68F5E7C0460038024032
:10088C00034B8022596B52040A435A637047C0468B
:10089C0000380240034BDB681840431E9841C0B23D
:1008AC007047C04600380240014B18707047C04674
:1008BC000E38024008B58023DB05984221D0354B19
:1008CC00984227D0344B98422DD0344B984233D099
:1008DC00334B984239D0334B98423FD0324B9842ED
:1008EC0045D0324B98424BD0314B984200D008BD8A
:1008FC0010200121FFF76AFF10200021FFF766FF8F
:10090C00F5E701200121FFF76DFF01200021FFF722
:10091C0069FFECE702200121FFF764FF02200021B0
:10092C00FFF760FFE3E704200121FFF75BFF0420E2
:10093C000021FFF757FFDAE708200121FFF752FFEC
:10094C0008200021FFF74EFFD1E710200121FFF70F
:10095C0049FF10200021FFF745FFC8E720200121A7
:10096C00FFF740FF20200021FFF73CFFBFE70420EA
:10097C000121FFF72BFF04200021FFF727FFB6E72B
:10098C0008200121FFF722FF08200021FFF71EFF9E
:10099C00ADE7C0460004004000080040000C0040D9
:1009AC00001000400014004000080140000C014001
:1009BC00001001400368802210B59BB2D205904212
:1009CC001AD0104A904217D00F4A904214D00F4AB6
:1009DC00904211D00E4A904206D00E4A904203D05B
:1009EC000D4C0A892340134303804B68C3620B8868
:1009FC0003850123838210BD702293434A881343DD
:100A0C00E8E7C0460004004000080040000C00402D
:100A1C000010004000140040FFFCFFFF01235B426C
:100A2C0043600023038003814380704701858282E9
:100A3C007047C0460268024B13401943018070474F
:100A4C008FFF000041627047C1627047406A704777
:100A5C00806A80B27047C046002904D10268054BF9
:100A6C00134003807047036802229BB21343038038
:100A7C00F8E7C046FDFF0000002904D10268054BD1
:100A8C00134003807047036804229BB21343038016
:100A9C00F8E7C046FBFF0000002904D10268054BB3
:100AAC00134003807047036880229BB2134303807A
:100ABC00F8E7C0467FFF00000268044B1340038038
:100ACC0003689BB2194301807047C046F7FF0000D2
:100ADC000268044B1340038003689BB219430180E6
:100AEC007047C046FFFC0000002904D10268054B8A
:100AFC00134003807047036801229BB213430380A9
:100B0C00F8E7C046FEFF0000026A0A4B30B51340FE
:100B1C000384046A084B82694D881A400B881A4377
:100B2C00064B1C400B8949682B43234341630283CA
:100B3C00038430BDFEFF00008CFF0000FDFF0000B1
:100B4C00026A0D4B10B513400384046A0B4B826987
:100B5C001A400B881B021A43094B92B223400C8992
:100B6C00240123434C889BB22401496823439BB244
:100B7C0081630283038410BDEFFF0000FF8F000030
:100B8C00DFFF0000026A0C4B10B513400384046AAB
:100B9C000A4BC2691A400B881A43094B23400C8933
:100BAC00240223434C889BB22402496823439BB202
:100BBC00C1638283038410BDFFFE00008FFF000021
:100BCC00FFFD0000026A0D4B10B513400384046A4C
:100BDC000B4BC2691A400B881B021A43094B92B289
:100BEC0023400C89240323434C889BB2240349687B
:100BFC0023439BB201648283038410BDFFEF00008A
:100C0C00FF8F0000FFDF0000002303804380436060
:100C1C000381704730B5036A01249BB28C40A34317
:100C2C00051C03840823081C183598430DD004397F
:100C3C0089B2490849190868094B120203400B6034
:100C4C000B6892B21A430A6030BD490869180B68E8
:100C5C00702083430B600B681A430A60F4E7C046AC
:100C6C00FF8FFFFF4163704781637047C16370471B
:100C7C00016470478269024B13401943018370472A
:100C8C008FFF00008269044B1A400B02111C1943A0
:100C9C0089B201837047C046FF8F0000C269024BC6
:100CAC0013401943818370478FFF0000C269044BC6
:100CBC001A400B02111C194389B281837047C0463C
:100CCC00FF8F00008269024B134019430183704768
:100CDC00F7FF00008269044B1A400B02111C1943E8
:100CEC0089B201837047C046FFF70000C269024B0E
:100CFC001340194381837047F7FF0000C269044B0E
:100D0C001A400B02111C194389B281837047C046EB
:100D1C00FFF700008269024B1340194301837047AF
:100D2C00FBFF00008269044B1A400B02111C194393
:100D3C0089B201837047C046FFFB0000C269024BB9
:100D4C001340194381837047FBFF0000C269044BB9
:100D5C001A400B02111C194389B281837047C0469B
:100D6C00FFFB00008269024B13401943018370475B
:100D7C007FFF0000836909025B045B0C194389B295
:100D8C0001837047C269024B13401943818370473A
:100D9C007FFF0000C36909025B045B0C194389B235
:100DAC0081837047026A024B1340194301847047D8
:100DBC00FDFF0000026A044B1A400B01111C194381
:100DCC0089B201847047C046DFFF0000026A044B01
:100DDC001A400B02111C194389B201847047C0469A
:100DEC00FFFD0000026A044B1A400B03111C19434F
:100DFC0089B201847047C046FFDF00008268044B53
:100E0C001340038183689BB2194301817047C0462C
:100E1C00F7FF0000036A10B501248C409BB2A3437A
:100E2C000384036A8A40111C194389B2018410BDE2
:100E3C000B88F0B5002B2BD0042B4AD0082B00D1FB
:100E4C006DE0056A474A4B882A408E880C890284DB
:100E5C00C769454A36023A403243240392B2056AC6
:100E6C002243424C1B032C401C438023A4B25B0145
:100E7C0092B22343828303843D4ACB88C1691B020F
:100E8C000A408283C26992B213439BB28383F0BD42
:100E9C00046A384A8B8822404D880E8902848769FF
:100EAC00354A36013A40324392B2046A1A43334B04
:100EBC0002831C4001232B4323439BB20384CA8827
:100ECC002F4B81690B40038383699BB213430383CC
:100EDC00DDE7056A2B4A4C882A408B880E890284F0
:100EEC008769214A36033A4032431B0292B2056AA3
:100EFC001A43254B24012B4023439BB2102492B25E
:100F0C002343028303841A4ACB8881691B020A405B
:100F1C000283826992B213439BB20383B7E7056ADB
:100F2C001A4A8C882A404B880E890284C769124A57
:100F3C0036013A40324392B2056A2243144C1B02EA
:100F4C002C401C438023A4B25B0023438283038484
:100F5C00CA880B4BC1690B408383C3699BB2134393
:100F6C00838394E7FFEF0000FF0C0000FF5F00009D
:100F7C00FFF30000FEFF00000CFF0000F5FF000077
:100F8C00F3FF0000EFFF00005FFF0000FFFE00001A
:100F9C00FFF5000000230122038043808280C38080
:100FAC00038170474B88F0B55C425C416200574648
:100FBC0092468A884E464546E0B4551E6E1EB54193
:100FCC000226751B0E88002E4ED0076A4F4EBC466B
:100FDC00371C664637400C8907848669076AB04619
:100FEC004B4EBC4647463740B84646462703374328
:100FFC00BEB2484F120232431E013B1C67463B40B7
:10100C0033439BB21026334392B202830384424A89
:10101C00CB88816957460A4002838269190292B2D1
:10102C000A4392B20283016A3C4A0A4002848669EE
:10103C0022013B4C016A344014433A4AA4B20A40A0
:10104C0001210A4325431743ADB205830784816907
:10105C00354A0A400283826992B2134303831CBC53
:10106C0090469946A246F0BD0E89076AB2462B4EB1
:10107C00BC46371C6646374007848669076AB0460B
:10108C00274EBC4647463740B846574646463F0172
:10109C003743BFB23A430126224F90466246B446CC
:1010AC001740624613433B439BB246460683038478
:1010BC001D4ACB88816956460A40028382692D02FB
:1010CC0092B21A430283016A104A1B020A4002843C
:1010DC0087690F4A016A174032033E1C16430D4ABA
:1010EC00B6B2114010221143354362010C1C14435B
:1010FC00ADB2058304848169074A0A400283826980
:10110C0092B213439BB20383A9E7C046EFFF0000E2
:10111C00FF0C00005FFF0000FFF30000FEFF00006B
:10112C000CFF0000F5FF0000F3FF0000406B704760
:10113C00806B7047C06B7047006C70478269044BC2
:10114C001340038383699BB2194301837047C046E4
:10115C00F3FF00008269054B090213400383836986
:10116C009BB2194389B201837047C046FFF300005C
:10117C00C269044B13408383C3699BB219438183B7
:10118C007047C046F3FF0000C269054B09021340CB
:10119C008383C3699BB2194389B281837047C0466C
:1011AC00FFF30000C3689BB2002A02D18B438381FA
:1011BC00704719438181FBE78182704700690840C1
:1011CC00431E9841C0B27047C94389B2018270472F
:1011DC000369C06882B200200B4203D011404A1E42
:1011EC009141C8B27047C046C94389B20182704769
:1011FC0011434823C1527047C3689BB2002A02D1E5
:10120C008B438381704719438181FBE7002904D10B
:10121C004268054B134083807047436808229BB299
:10122C0013438380F8E7C046F7FF00008268024B47
:10123C00134003817047C046F8FF00008268054BDD
:10124C00134019430181836807229BB21343038126
:10125C007047C0468FFF000070B5056A60291ED02C
:10126C001B4C1B012C40048485691A4C066A2540D2
:10127C0001242543ADB22B43174D9BB235402C4373
:10128C00A4B22243038302848268144B1340194393
:10129C000181836807229BB21343038170BD104CFC
:1012AC002C40048486690F4C056A26408024640017
:1012BC0026431C03331C23430B4C9BB225401024A8
:1012CC00254314012A1C224392B203830284DBE7D8
:1012DC00FEFF00000CFF0000F5FF00008FFF000078
:1012EC00EFFF0000FF0C00005FFF000010B51B02B9
:1012FC0084681A43FF231C40224392B2114301819C
:10130C008268034B134077221343038110BDC04600
:10131C0088FF000010B51B0284681A43FF231C4091
:10132C00224392B2114301818268802392B2DB0185
:10133C001343038110BDC0468268024B134019430E
:10134C00018170478FFF00004268044B134083807B
:10135C0043689BB2194381807047C0468FFF0000E1
:10136C008268044B1340038183689BB2194301814B
:10137C007047C046F8FF00008268044B134003819D
:10138C0083689BB2194301817047C0467FFF000000
:10139C0030B58568FF242C4021430A431B021A43B5
:1013AC0092B2028130BDC046F0B58768094C8569A0
:1013BC003C402143084C066A2C400225FF352C4347
:1013CC00064D1B0135402A431A4392B20181048316
:1013DC000284F0BDF8FF0000FCFC0000DDFF000003
:1013EC00002904D14268054B134083807047436841
:1013FC0080229BB213438380F8E7C0467FFF000036
:10140C00026D0B0C1A405023C252026D114389B26B
:10141C00C152704710B58024A400201C0121FFF795
:10142C00E1F9201C0021FFF7DDF910BD10B50E4CC1
:10143C000E4B6268134063600168636842680B433B
:10144C00134363602021A368074A1942FBD0136839
:10145C007E218B431360816813680B43C1680B4377
:10146C0001690B43136010BD00240040FFFF03FC17
:10147C000023036043608360C36003617047C04610
:10148C00014B18607047C04600800442024920227C
:10149C008B681A42FCD0704700240040014B186046
:1014AC007047C04680800442014B18607047C046AC
:1014BC001C800442044B70215A688A435A605A6853
:1014CC00104358607047C04600240040044B054A46
:1014DC0059680A405A605A68104358607047C046B1
:1014EC00002400407FFCFFFF054B10B5054A5C68EB
:1014FC0022405A605A6811430843586010BDC046D8
:10150C0000240040FF1FFCFF044B054A59680A40A9
:10151C005A605A68104358607047C0460024004017
:10152C00FFE3FFFF024B8000C01841607047C046CC
:10153C0010240040014B01221A60704708810442BC
:10154C00044B5A68002902D182435A6070471043F9
:10155C005860FBE700240040034B9B681840431E77
:10156C009841C0B27047C04600240040014BD8607F
:10157C007047C04600240040054B99685A68002308
:10158C00024203D00840411E8841C3B2181C704768
:10159C0000240040014BD8607047C0460024004036
:1015AC0003B47146490840004900095A49008E4469
:1015BC0003BC7047002934D00123002210B48842A8
:1015CC002CD301242407A14204D2814202D2090166
:1015DC001B01F8E7E400A14204D2814202D2490087
:1015EC005B00F8E7884201D3401A1A434C08A0422A
:1015FC0002D3001B5C0822438C08A04202D3001BC0
:10160C009C082243CC08A04202D3001BDC082243D6
:10161C00002803D01B0901D00909E3E7101C10BCFA
:10162C007047002801D00020C04307B4024802A133
:10163C004018029003BDC046D90000000029F0D02C
:10164C0003B5FFF7B9FF0EBC4243891A1847C046D1
:10165C00002941D010B4041C4C40A44601230022A4
:10166C00002900D54942002800D5404288422CD39D
:10167C0001242407A14204D2814202D209011B0198
:10168C00F8E7E400A14204D2814202D249005B0097
:10169C00F8E7884201D3401A1A434C08A04202D3FF
:1016AC00001B5C0822438C08A04202D3001B9C0840
:1016BC002243CC08A04202D3001BDC0822430028A2
:1016CC0003D01B0901D00909E3E7101C6446002C68
:1016DC0000D5404210BC7047002806D003DB002028
:1016EC00C043400801E08020000607B4024802A174
:1016FC004018029003BDC046190000000029EBD031
:10170C0003B5FFF7A7FF0EBC4243891A1847C04622
:10171C007047C04630B5012089B0011CFFF73EF878
:10172C0004A8FEF79BFFFA210498C900FFF742FFBB
:10173C00802501AC084AED05013800232080211CCE
:10174C00281C638062602381FFF734F9281C012177
:10175C00FFF7CAF909B030BD0F27000008B580208B
:10176C00FEF75AFF0120FEF711FF0020FEF72AFFBB
:10177C002120FFF773F80028FAD000200C21C0229A
:10178C00FEF718FF0120FEF71DFF3920FFF766F862
:10179C000028FAD00320FEF72DFF08BD08B510482D
:1017AC000121FEF7FBFF01210E48FEF7EBFF0120A4
:1017BC00FEF7D0FD0120FEF7D3FF0020FEF7D0FF8F
:1017CC000120FEF7E9FE4920FFF748F80028FAD07F
:1017DC0080204002FEF79EFF0120FEF7BBFF08BDF4
:1017EC000002001001020000F8B5FFF7D7FF00F06F
:1017FC005DFA00F01DFBFFF7B1FFFFF78BFF144CF8
:10180C00144F05213A1C0B1C201C00F02FFC201C33
:10181C0000F01EFA01256D42261C8020C005FFF742
:10182C0015F9041EAC42F8D0FA218900FFF710FF1D
:10183C000A21031C3A1C301C00F018FCAC4201DAE3
:10184C0000F020FA301C00F003FA251CE5E7C04636
:10185C001E00002040220008094B0A4A596A114018
:10186C005962D96A0A40DA62074A586A1178090340
:10187C00014359625278D96A12030A43DA627047FB
:10188C0000240040FF5FFFFF1C000020F0B504782F
:10189C0085B02F2C20D00CD8252C1FD003D8002796
:1018AC00202C30D01DE02A2C2CD0A0272D2C16D08B
:1018BC0017E06D2C0CD005D8392C12D8303C6400B4
:1018CC00D5481DE06E2C05D0FF2C0AD1D34F1AE061
:1018DC00D34F18E0D34F16E0C02714E0B3273F02D4
:1018EC0011E0201C4138C5B20027192D02D8CE4D6D
:1018FC004000475B613CE0B2192804D8CA48640038
:10190C00275A00E0C94F002901D002210F43002AB9
:10191C0001D0202217433A133911581E0192D5B227
:10192C003C0AC9B2FAB2052800D970E1C04BFFF7E6
:10193C0037FE060036008000B400E9001E015E6927
:10194C00BC4806405E61DE690640DE615E6A0640A8
:10195C005E62DE6A3040D8625E69281C02960C26F4
:10196C003040800684460320674605403D43029F75
:10197C003D43271C5D613740DD69BF0604403C4395
:10198C002C430D1CDC6135405C6AAD0601402943DB
:10199C00214316405962D96AB6060240B0E05E692E
:1019AC00A5482F1C06405E61DE690640DE615E6A5A
:1019BC0006405E62DE6A3040D862586902260390A7
:1019CC000C208446374028400006BF010743012005
:1019DC000540B5403D43039F3D43271C5D613740A7
:1019EC00DD69BF010397674602952740039D0440BC
:1019FC003F06B4402F43029D27433D43DD610F1C3E
:101A0C00654637400D402D06BF0101402F435C6AEF
:101A1C008D00391C29432143644616401440B601FD
:101A2C0024061040264359628000321CD96A0243B6
:101A3C00EBE05E69814806405E61DE690640DE616E
:101A4C005E6A06405E62DE6A3040D8625E69281CBF
:101A5C00029603263040000284460C20054067465F
:101A6C00AD053D43029F3D43271C5D61374004405B
:101A7C00DD693F02A4053C432C430D1CDC61354061
:101A8C0001405C6A2D0289052943214316405962A5
:101A9C000240D96A3602920532E05E696848064017
:101AAC005E61DE690640DE615E6A06405E62DE6A89
:101ABC003040D862586903260290281C30408002BE
:101ACC0084460C2005406746AD043D43029F3D43D0
:101ADC00271C5D6137400440DD69BF02A4043C4310
:101AEC002C430D1CDC61354001405C6AAD0289045D
:101AFC002943214359621640D96A0240B602920426
:101B0C00324382E05E694F4806405E61DE693040D8
:101B1C00D8615E6A4C4806405E62DE6A3040D8622C
:101B2C00586903260290281C3040000384460C2080
:101B3C00054067462D043D43029F26403D435D61B1
:101B4C000440DD698640240434432C43DC610E1CC4
:101B5C000124264001405D6A864009043143294333
:101B6C00144059620240D96A844012044CE05F6907
:101B7C00364807405F61DF690740DF615F6A0740F5
:101B8C005F62DF6A3840D86258692F1C03900420CA
:101B9C000740FF03BC4608273D4066466D033543AE
:101BAC00AC46019DAE07360C65463543039E354366
:101BBC00261C3E405D617603DD69B446261C06405A
:101BCC000395F60365463543A407260C2C1C3443B9
:101BDC00039E3443DC610E1C0C1C3E400440E403A9
:101BEC007603264301242140B4465D6A8E03614688
:101BFC00314329431740104059627F03C0031440FE
:101C0C003843D96AA403021C22430A43DA62FFF761
:101C1C0023FE05B0F0BDC04678220008DDFF0000B1
:101C2C0010B200001022000044220008DDA00000C9
:101C3C0000240040FCFFFFCF03FFFFF3FFFCFFFC81
:101C4C00FFF3CFFFFFCFF3FFFFEFF3FFFF3FFCFFEF
:101C5C0038B5051C0420FFF77FFC0028FAD12C1C9A
:101C6C00631B0133DBB20022072B08D82178914289
:101C7C0005D0201C111CFFF709FE0134F0E7FFF71B
:101C8C0059FC38BD08B50420FFF766FC0028FAD1D2
:101C9C00054A83009B18013000225A601028F7D1A6
:101CAC00FFF748FC08BDC0461024004037B50121A1
:101CBC000720FEF75BFD6846FEF7ECFA564C574BD7
:101CCC0002250093201C6B4669461D71FEF78AFAAB
:101CDC00201C01210B22FEF71FFB291C201C0B22B0
:101CEC00FEF71AFB201C03210B22FEF715FB201C10
:101CFC0008210B22FEF710FB201C09210B22FEF7FA
:101D0C000BFB201C0A210B22FEF706FB201C0B22CE
:101D1C000F21434CFEF700FB424B201C00936946FD
:101D2C006B461D71FEF75EFA201C03210B22FEF799
:101D3C00F3FA201C04210B22FEF7EEFA201C0521DD
:101D4C000B22FEF7E9FA201C08210B22FEF7E4FA1D
:101D5C00201C09210B22FEF7DFFA201C0A210B2282
:101D6C00FEF7DAFA0B21201C0A1CFEF7D5FA201C10
:101D7C000C210B22FEF7D0FA201C0D210B22FEF7B2
:101D8C00CBFA201C0E210B22FEF7C6FA201C0B22CC
:101D9C000F21254CFEF7C0FA244B201C00936946FA
:101DAC006B461D71FEF71EFA201C00210B22FEF75C
:101DBC00B3FA201C01210B22FEF7AEFA291C201CC1
:101DCC000B22FEF7A9FA201C03210B22FEF7A4FA22
:101DDC00201C06210B22FEF79FFA201C07210B2248
:101DEC00FEF79AFA201C08210B22FEF795FA201C0C
:101DFC0009210B22FEF790FA201C0A210B22FEF778
:101E0C008BFA0B210A1C201CFEF786FA07200021F6
:101E1C00FEF7ACFC37BDC046000002400E87000048
:101E2C000004024038FF000000080240CF0F000001
:101E3C0030B5F02387B09B030024029340250C237C
:101E4C0001A80393019404950594FFF7EFFA012080
:101E5C00FFF72AFB80204001FFF756FB201CFFF701
:101E6C0035FB281CFFF726FBFFF710FB0120FFF7C3
:101E7C0007FB0120FFF770FB0028FAD01020FFF7BA
:101E8C006BFB0028FAD080210020C901FFF72CFB46
:101E9C00FFF7F8FE07B030BD63465A68996830B555
:101EAC008C1A1D6801340022AC4205D24C1C9C607B
:101EBC0008709B681A700122101C30BD624670B508
:101ECC00146855689668031C013CA81B20188842AE
:101EDC0000D9081C1C189168A34205D04D1C9560B4
:101EEC001D7801330D70F6E700230B7070BDF7B54C
:101EFC0001920022041C0F1C1E1C0092904202DA5C
:101F0C00012344420093351C201C391CFFF796FB1F
:101F1C000135092901DC303106E0019A6123002AE0
:101F2C0000D041230A395918C9B26B1E1970201CF4
:101F3C00391CFFF73FFB041EE6D1A91B2B1C4A1BC7
:101F4C00089CD218181CA24203D230221A700133FA
:101F5C00F5E7009C002C02D02D2201301A700023D2
:101F6C000370801B42083318B218013B964205D00F
:101F7C0031781C78347019700136F6E7FEBD70B5F7
:101F8C008CB0151C1C1C049003910590287800281B
:101F9C0067D00599049A8B1A039901338B4260D24E
:101FAC00252803D003AA0135944657E068783028D9
:101FBC0002D0023500230CE0AB78002B51D0303B23
:101FCC00DBB200220921994252415242E878134077
:101FDC000435642811D006D858281AD0632828D084
:101FEC00002839D13DE0752807D0782811D0732806
:101FFC0032D12068261D031C22E020680A210093A0
:10200C00002206ABFFF773FF03AB261D011C9C4699
:10201C000DE021685838424242410093081C06AB3F
:10202C001021FFF764FF03AA261D011C944606A885
:10203C000EE003AB20789C46261DFFF72DFF09E030
:10204C00191A01335A1E1278002AF9D103AA9446A0
:10205C00FFF734FF341C99E703AB9C46FFF71CFFDA
:10206C0094E70598049BC01A0CB070BD0CB407B56E
:10207C0004AB04CB0193FFF782FF03B008BC02B0A2
:10208C00184700003C4B37B51968802252000A43B0
:10209C001A609968394A0A409A601968384A0A40A5
:1020AC001A601968374A0A401A609A6836490A4019
:1020BC009A600022DA600092019218688022520223
:1020CC0002431A60081C1968802292021140019187
:1020DC000099013100910199002904D1009CA021A3
:1020EC00C9018C42EFD119680A4000D0012201923B
:1020FC000199012904D0254B802212059A6037BD25
:10210C00234A042514682C431460146802252C43BC
:10211C001460146821431160596A802252050A43E5
:10212C005A6280211B4A090111605168CC06FCD40B
:10213C009A689A609A689A609A689A6099689122EB
:10214C0001409960996812040A439A6019688022C8
:10215C0052040A431A601968074A8801FBD5906833
:10216C0003218843906090680143916099680C2228
:10217C000A400C2AFAD1BEE7003802400CC0FF8896
:10218C00FEFFFEEEFFFFFBFFFFFF02FF00ED00E096
:10219C00003C024000700040002100F004B80D4BE0
:1021AC005B58435004310C480C4B42189A42FFF4D4
:1021BC00F6AF0B4A00F003B8002342F8043B094B7E
:1021CC009A42FFF4F9AFFFF75DFF00F00FF8FFF74D
:1021DC000BFB7047A4220008000000201C0000200C
:1021EC001C00002034000020FFF7FEBF70B50D4E20
:1021FC000D4D0024AD1BAD1005D0A300F3580134D8
:10220C009847A542F9D100F03BF8084E084D002440
:10221C00AD1BAD1005D0A300F35801349847A5426F
:10222C00F9D170BD000000000000000000000000AB
:10223C00000000002564000000FE1467001D144718
:10224C00009D009C003F00FA1400005341980019B7
:10225C00485A095A005F00FC015F01FC00AF1404EE
:10226C00005BC018815AC9005800C005005F0042CD
:10227C0000F5006700EA00AF00BF004600FF00EF6A
:10228C00F8B5C046F8BC08BC9E467047F8B5C046C9
:08229C00F8BC08BC9E46704727
:1022A400030406080C101820300000000000000091
:0C22B400010203040102030406070809EC
:04000005080021A529
:00000001FF
