:020000040800F2
:1000000000200020F90D0008490E0008490E0008E4
:10001000490E0008490E0008490E000800000000C3
:10002000000000000000000000000000490E000871
:10003000490E000800000000490E0008490E0008A3
:10004000490E0008490E0008490E0008490E000834
:10005000490E0008490E0008490E0008490E000824
:10006000490E0008490E0008490E0008490E000814
:10007000490E0008490E0008490E0008490E000804
:10008000490E0008490E0008490E0008490E0008F4
:10009000490E0008490E0008490E0008490E0008E4
:1000A000490E0008490E0008490E0008490E0008D4
:1000B000490E0008490E0008490E0008490E0008C4
:1000C000490E0008490E0008490E0008490E0008B4
:1000D000490E0008490E0008490E0008490E0008A4
:1000E000490E0008490E0008490E0008490E000894
:1000F000490E0008000000000000000000000000A1
:0C01000000000000000000005FF808F1A3
:10010C0008B5304B98421ED02F4B984224D02F4B21
:10011C0098422AD02E4B984230D02E4B984236D053
:10012C002D4B98423CD02D4B984242D02C4B9842B0
:10013C0000D008BD2020012100F082FA20200021EF
:10014C0000F07EFAF5E70120012100F079FA012098
:10015C00002100F075FAECE70220012100F070FAA2
:10016C000220002100F06CFAE3E70420012100F0EA
:10017C0067FA0420002100F063FADAE70820012175
:10018C0000F05EFA0820002100F05AFAD1E71020A6
:10019C00012100F055FA1020002100F051FAC8E7B7
:1001AC004020012100F04CFA4020002100F048FAD8
:1001BC00BFE78020012100F043FA8020002100F0ED
:1001CC003FFAB6E70000024000040240000802407B
:1001DC00000C02400010024000180240001C0240BB
:1001EC0000140240F0B544465F4656464D46F0B406
:1001FC008C460F68032183B0002400230126884617
:10020C0003E001330234102B26D0321C9A403D1CE3
:10021C0015409542F5D142460168A240D2431140A7
:10022C00016061460979934602680191A14011432E
:10023C00016001990139C9B2012914D9C1685A4622
:10024C000A406546C260EA79C168A2400A4301339C
:10025C00C2600234102BD8D103B03CBC90469946F6
:10026C00A246AB46F0BD81685A4611406246816099
:10027C0052798168A240114381604168624689B21B
:10028C00A9438180917945689940294389B281803D
:10029C00D4E7C046034B03600023037143718371A1
:1002AC00C3717047FFFF0000802382B05B02019393
:1002BC00019B0B430193019BC361C161019BC36112
:1002CC00C3690193C369019302B070470069084088
:1002DC00431E9841C0B27047006980B27047C04657
:1002EC0040690840431E9841C0B27047406980B2D3
:1002FC007047C0460183704741837047002A01D183
:10030C00418370470183FCE78182704743699BB24C
:10031C00594081827047C04607230B40C9088900A9
:10032C00401810B5016A9B000F249C40A143016248
:10033C00016A9A40131C0B43036210BD0C4B8022C4
:10034C00196852000A431A6099680A4A0A409A606E
:10035C001968094A0A401A601968084A0A401A6062
:10036C009968074A0A409A600022DA607047C046D2
:10037C00003802400CC0FF88FEFFFEEEFFFFFBFFC3
:10038C00FFFF02FF024B00221A7018707047C04624
:10039C0002380240002382B001938022A0230B4933
:1003AC009202D8000B6813420BD1019B01330193CD
:1003BC00019B8342F6D1054B18688003C00F02B035
:1003CC007047019B01330193019BF4E70038024015
:1003DC00014B18707047C04607380240034B044A63
:1003EC0059680A40104358607047C04600380240B4
:1003FC00FF1FFFFF014B18607047C04620004742AB
:10040C00034B044A596800020A4010435860704775
:10041C0000380240FFE0FFFF014B18607047C046F8
:10042C0000004742024B00221A7018707047C046F9
:10043C0035380240014B18607047C0468006474271
:10044C001043024B014319707047C0460A380240F2
:10045C00014B18607047C04660004742014B186062
:10046C007047C04670004742014B18607047C04649
:10047C00AC064742014B0843187070470B380240DA
:10048C00034B03219A688A43104398607047C04617
:10049C0000380240024B0C209B6818407047C04645
:1004AC0000380240034BF0219A688A43104398604D
:1004BC007047C04600380240034B044A99680A4012
:1004CC00104398607047C04600380240FFF8FFFFA9
:1004DC00034B044A9968C0000A4010439860704767
:1004EC0000380240FFC7FFFF294A38B593680C213A
:1004FC00041C0B40042B41D031D9082B14D00C2BED
:10050C0039D19368234D91689B021B0FEB5C090258
:10051C009268890FDBB20131D00333D41E485843A3
:10052C0000F0F8FA206002E01C481A4D2060184BCD
:10053C009A681206120FAA18127BD04060609A6853
:10054C00011C5205520FAA18127BD140A1609B6866
:10055C009B045B0FED182B7BD840E06038BD002B63
:10056C0009D153681B045B0F8020013300029840B3
:10057C002060084DDBE7064B5B68F3E70648054D4A
:10058C002060D4E70548584300F0C4FA2060CEE759
:10059C0000380240000000200024F40000127A0011
:1005AC00C0239B02021C10B51A409A4208D1094B79
:1005BC0009491C682140C024E40520400843186008
:1005CC00044B0649586B01405963596B0A435A63F3
:1005DC0010BDC04600380240FFFFFF9FFFFFFCFF2D
:1005EC00014B18607047C046D8064742014B186053
:1005FC007047C046DC064742044BDA69002902D139
:10060C008243DA6170471043D861FBE7003802403F
:10061C00044B1A6A002902D182431A6270471043B4
:10062C001862FBE700380240044B5A6A002902D1D9
:10063C0082435A62704710435862FBE7003802400D
:10064C00044B1A69002902D182431A617047104386
:10065C001861FBE700380240044B5A69002902D1AB
:10066C0082435A61704710435861FBE700380240DF
:10067C00044B9A69002902D182439A617047104356
:10068C009861FBE700380240044B9A6A002902D1BA
:10069C0082439A62704710439862FBE7003802402D
:1006AC00044BDA6A002902D18243DA6270471043A4
:1006BC00D862FBE700380240044B1A6B002902D1C8
:1006CC0082431A63704710431863FBE700380240FB
:1006DC00044B1A78002902D182431A7070471043D8
:1006EC001870FBE70D3802404309012B08D0064B6C
:1006FC005B6B1F221040C340181C0123184070472D
:10070C00014B1B68F5E7C04600380240034B8022C2
:10071C00596B52040A435A637047C0460038024072
:10072C00034BDB681840431E9841C0B27047C0466B
:10073C0000380240014B18707047C0460E3802401A
:10074C0008B5234B984217D0224B98421FD0224B0E
:10075C00984227D0214B98422FD0214B984200D061
:10076C0008BD802040030121FFF782FF8020400359
:10077C000021FFF77DFFF3E78020C0010121FFF787
:10078C006BFF8020C0010021FFF766FFE8E78020A7
:10079C0080020121FFF76CFF802080020021FFF70F
:1007AC0067FFDDE78020C0020121FFF761FF802099
:1007BC00C0020021FFF75CFFD2E78020000301217B
:1007CC00FFF756FF802000030021FFF751FFC7E71A
:1007DC00003801400044004000480040004C0040FC
:1007EC000050004070B52E4B028A0D1C1340CA8875
:1007FC0009891343038282892A4B84B01A40AB883F
:10080C00041C0B4369890B4313438381828A264B57
:10081C001340AA89134383826846FFF765FE234B76
:10082C009C423BD0029BA28912B2002A22DB9A0086
:10083C00D318296898001818890000F06BF9051C6A
:10084C00281C642100F066F9060133096422534325
:10085C00ED1AA3891BB2002B16DB2D01281C32309C
:10086C00642100F057F90F2318400643B6B22681D5
:10087C0004B070BD9A00D318296898001818490064
:10088C0000F048F9051CDBE7ED00281C3230642130
:10089C0000F040F9072318400643E7E7039BC2E743
:1008AC00FFCFFFFFF3E9FFFFFFFCFFFF0038014024
:1008BC0096239B0103600C2200238380C380038159
:1008CC00428183817047C046028A064B10B51A409C
:1008DC004C880B8823438C88C98823430B431343D0
:1008EC00038210BDFFF0FFFF002303804380838051
:1008FC00C38070478289002903D1044B1340838144
:10090C00704780239B0113438381F9E7FFDFFFFFCF
:10091C00038BFF2293430383038B1943018370479B
:10092C00002904D183895B045B0C83817047828925
:10093C0080231B0213438381F8E7C046828A002977
:10094C0003D1044B13408382704780231B01134354
:10095C008382F9E7FFF7FFFFC905C90D8180704756
:10096C008088C005C00D7047038A0F229343038211
:10097C00038A194301827047002904D1838902221A
:10098C009343838170478289022313438381F9E760
:10099C008289034B1340838183891943818170477A
:1009AC00FFF7FFFF038A202293430382038A194334
:1009BC0001827047028A002903D1044B1340038241
:1009CC0070478023DB0113430382F9E7FFBFFFFF6E
:1009DC0082890123134383817047C046002904D1C7
:1009EC00838A0822934383827047828A08231343A5
:1009FC008382F9E7038BFF2213400383038B0902E5
:100A0C00194301837047C046002904D1838A2022F0
:100A1C00934383827047828A202313438382F9E7AE
:100A2C00002904D1838A1022934383827047828ADF
:100A3C00102313438382F9E7838A0422934383822E
:100A4C00838A194381827047002904D1838A022248
:100A5C00934383827047828A022313438382F9E78C
:100A6C00838A002A02D18B43838270471943818287
:100A7C00FBE7C0461F2310B5CCB2194001238B40B5
:100A8C00191C6409031C012C0CD01433022C0BD040
:100A9C00002A03D11A688A431A6010BD1A681143E0
:100AAC001960FAE70C33F3E7043BF1E700880840E0
:100ABC00431E9841C0B27047C94389B20180704748
:100ACC001F220A4010B50124CBB294405B09221CB2
:100ADC00012B10D0022B11D0848A2240008883B2C3
:100AEC000020002A06D0090A012088400340581E25
:100AFC008341D8B210BD84892240EFE7048A22409A
:100B0C00ECE7C046090A01238B40D94389B2018026
:100B1C007047C046002934D00123002210B488420B
:100B2C002CD301242407A14204D2814202D2090110
:100B3C001B01F8E7E400A14204D2814202D2490031
:100B4C005B00F8E7884201D3401A1A434C08A042D4
:100B5C0002D3001B5C0822438C08A04202D3001B6A
:100B6C009C082243CC08A04202D3001BDC08224381
:100B7C00002803D01B0901D00909E3E7101C10BCA5
:100B8C007047002801D00020C04307B4024802A1DE
:100B9C004018029003BDC046190000000029F0D097
:100BAC0003B5FFF7B9FF0EBC4243891A1847C0467C
:100BBC007047C046011C08B50448FFF7CDFE03483A
:100BCC004021FFF773FF0028F9D008BD0038014021
:100BDC0008B505482021FFF769FF0028F9D0024825
:100BEC00FFF7BEFEC0B208BD0038014008B504488E
:100BFC002021FFF75BFF013843425841C0B208BDCA
:100C0C000038014070B5051C00F03EF92C1C061C88
:100C1C00631BB34204DA2078FFF7CCFF0134F7E70B
:100C2C0070BD000010B5012088B0011CFFF7E4FC7A
:100C3C008020C0010121FFF7EBFCC023DB006A46DA
:100C4C0000930223002413711F4803236946537138
:100C5C009471D471FFF7C6FA1B4809210722FFF7DC
:100C6C005BFB07220A211848FFF756FB02A8FFF787
:100C7C003BFE164802A9FFF727FE96239B0104A909
:100C8C00049312480C238C80CC800C814B818C817A
:100C9C00FFF7A8FD0D480121FFF72CFE0B48402162
:100CAC00FFF704FF0028F9D0FFF7A0FF0028FBD0C6
:100CBC000748FFF7A7FFFFF78BFFFFF77BFF054800
:100CCC00FFF7A0FFF0E7C0460000024000380140EB
:100CDC00A40E0008B50E00083C4B37B519688022ED
:100CEC0052000A431A609968394A0A409A60196896
:100CFC00384A0A401A601968374A0A401A609A68DA
:100D0C0036490A409A600022DA6000920192186813
:100D1C008022520202431A60081C19688022920237
:100D2C00114001910099013100910199002904D1E0
:100D3C00009CA021C9018C42EFD119680A4000D057
:100D4C00012201920199012904D0254B8022120520
:100D5C009A6037BD234A042514682C431460146828
:100D6C0002252C431460146821431160596A8022B7
:100D7C0052050A435A6280211B4A090111605168CD
:100D8C00CC06FCD49A689A609A689A609A689A60C1
:100D9C009968912201409960996812040A439A60FB
:100DAC001968802252040A431A601968074A88019C
:100DBC00FBD5906803218843906090680143916053
:100DCC0099680C220A400C2AFAD1BEE7003802407E
:100DDC000CC0FF88FEFFFEEEFFFFFBFFFFFF02FFD4
:100DEC0000ED00E0003C024000700040002100F0EB
:100DFC0004B80D4B5B58435004310C480C4B421853
:100E0C009A42FFF4F6AF0B4A00F003B8002342F805
:100E1C00043B094B9A42FFF4F9AFFFF75DFF00F07A
:100E2C000FF8FFF7FFFE7047D00E000800000020FF
:100E3C001C0000201C0000201C000020FFF7FEBF3F
:100E4C0070B50D4E0D4D0024AD1BAD1005D0A3009B
:100E5C00F35801349847A542F9D100F027F8084E11
:100E6C00084D0024AD1BAD1005D0A300F358013480
:100E7C009847A542F9D170BD0000000000000000A9
:100E8C0000000000000000000023C25C0133002AB7
:100E9C00FBD1581E7047C046446174612041766195
:100EAC00696C61626C653A20000D0A00F8B5C046A9
:100EBC00F8BC08BC9E467047F8B5C046F8BC08BCE8
:040ECC009E46704787
:100ED000030406080C101820300000000000000079
:0C0EE000010203040102030406070809D4
:0400000508000DF9E9
:00000001FF
