:020000040800F2
:1000000000200020650B0008B50B0008B50B0008A8
:10001000B50B0008B50B0008B50B00080000000088
:10002000000000000000000000000000B50B000808
:10003000B50B000800000000B50B0008B50B000868
:10004000B50B0008B50B0008B50B0008B50B000890
:10005000B50B0008B50B0008B50B0008B50B000880
:10006000B50B0008B50B0008B50B0008B50B000870
:10007000B50B0008B50B0008B50B0008B50B000860
:10008000B50B0008B50B0008B50B0008B50B000850
:10009000B50B0008B50B0008B50B0008B50B000840
:1000A000B50B0008B50B0008B50B0008B50B000830
:1000B000B50B0008B50B0008B50B0008B50B000820
:1000C000B50B0008B50B0008B50B0008B50B000810
:1000D000B50B0008B50B0008B50B0008B50B000800
:1000E000B50B0008B50B0008B50B0008B50B0008F0
:1000F000B50B000800000000000000000000000038
:0C01000000000000000000005FF808F1A3
:10010C0010B58024A405201C012100F0A9FB201CA3
:10011C00002100F0A5FB10BD094B30B5094C1A6845
:10012C0084404D68A2430C6825438C682543CC68F9
:10013C00291C21438140081C1043186030BDC04667
:10014C0000740040FE0F00000023036043608360D6
:10015C00C3607047074B1A68002904D10121814004
:10016C008A431A60704701218140081C10431860B3
:10017C00F8E7C04600740040074B00095A68002994
:10018C0004D1012181408A435A607047012181408A
:10019C00081C10435860F8E700740040064B002818
:1001AC0004D15A6803218A435A6070475968032264
:1001BC000A435A60F9E7C04600740040064B002A17
:1001CC0004D11A6881408A431A6070471A688140CA
:1001DC00081C10431860F8E70074004082B000233C
:1001EC000193054B0193019B083318180190019B57
:1001FC00196002B07047C0460074004082B0002302
:10020C000193054B0193019B143318180190019B2A
:10021C00196002B07047C04600740040082805D031
:10022C0009041143034BC0180160704709021143C4
:10023C00F8E7C0462074004082B000230193064BBF
:10024C0080080193019B2C3318180190019B1868AE
:10025C0080B202B07047C04600740040084B1A6868
:10026C00002905D18021490181408A431A607047D9
:10027C00802149018140081C10431860F7E7C046F3
:10028C0000740040064B002A04D11A6881408A434E
:10029C001A6070471A688140081C10431860F8E710
:1002AC0000740040044B81405B6B081C1840431EDB
:1002BC009841C0B27047C04600740040014B814069
:1002CC005963704700740040054B81401A685B6BA2
:1002DC0000200B4203D011404A1E9141C8B2704716
:1002EC0000740040014B814059637047007400401A
:1002FC0008B5304B98421ED02F4B984224D02F4B30
:10030C0098422AD02E4B984230D02E4B984236D061
:10031C002D4B98423CD02D4B984242D02C4B9842BE
:10032C0000D008BD2020012100F082FA20200021FD
:10033C0000F07EFAF5E70120012100F079FA0120A6
:10034C00002100F075FAECE70220012100F070FAB0
:10035C000220002100F06CFAE3E70420012100F0F8
:10036C0067FA0420002100F063FADAE70820012183
:10037C0000F05EFA0820002100F05AFAD1E71020B4
:10038C00012100F055FA1020002100F051FAC8E7C5
:10039C004020012100F04CFA4020002100F048FAE6
:1003AC00BFE78020012100F043FA8020002100F0FB
:1003BC003FFAB6E700000240000402400008024089
:1003CC00000C02400010024000180240001C0240C9
:1003DC0000140240F0B544465F4656464D46F0B414
:1003EC008C460F68032183B0002400230126884625
:1003FC0003E001330234102B26D0321C9A403D1CF2
:10040C0015409542F5D142460168A240D2431140B5
:10041C00016061460979934602680191A14011433C
:10042C00016001990139C9B2012914D9C1685A4630
:10043C000A406546C260EA79C168A2400A430133AA
:10044C00C2600234102BD8D103B03CBC9046994604
:10045C00A246AB46F0BD81685A46114062468160A7
:10046C0052798168A240114381604168624689B229
:10047C00A9438180917945689940294389B281804B
:10048C00D4E7C046034B03600023037143718371AF
:10049C00C3717047FFFF0000802382B05B020193A1
:1004AC00019B0B430193019BC361C161019BC36120
:1004BC00C3690193C369019302B070470069084096
:1004CC00431E9841C0B27047006980B27047C04665
:1004DC0040690840431E9841C0B27047406980B2E1
:1004EC007047C0460183704741837047002A01D191
:1004FC00418370470183FCE78182704743699BB25B
:10050C00594081827047C04607230B40C9088900B7
:10051C00401810B5016A9B000F249C40A143016256
:10052C00016A9A40131C0B43036210BD0C4B8022D2
:10053C00196852000A431A6099680A4A0A409A607C
:10054C001968094A0A401A601968084A0A401A6070
:10055C009968074A0A409A600022DA607047C046E0
:10056C00003802400CC0FF88FEFFFEEEFFFFFBFFD1
:10057C00FFFF02FF024B00221A7018707047C04632
:10058C0002380240002382B001938022A0230B4941
:10059C009202D8000B6813420BD1019B01330193DB
:1005AC00019B8342F6D1054B18688003C00F02B043
:1005BC007047019B01330193019BF4E70038024023
:1005CC00014B18707047C04607380240034B044A71
:1005DC0059680A40104358607047C04600380240C2
:1005EC00FF1FFFFF014B18607047C04620004742B9
:1005FC00034B044A596800020A4010435860704784
:10060C0000380240FFE0FFFF014B18607047C04606
:10061C0000004742024B00221A7018707047C04607
:10062C0035380240014B18607047C046800647427F
:10063C001043024B014319707047C0460A38024000
:10064C00014B18607047C04660004742014B186070
:10065C007047C04670004742014B18607047C04657
:10066C00AC064742014B0843187070470B380240E8
:10067C00034B03219A688A43104398607047C04625
:10068C0000380240024B0C209B6818407047C04653
:10069C0000380240034BF0219A688A43104398605B
:1006AC007047C04600380240034B044A99680A4020
:1006BC00104398607047C04600380240FFF8FFFFB7
:1006CC00034B044A9968C0000A4010439860704775
:1006DC0000380240FFC7FFFF294A38B593680C2148
:1006EC00041C0B40042B41D031D9082B14D00C2BFB
:1006FC0039D19368234D91689B021B0FEB5C090267
:10070C009268890FDBB20131D00333D41E485843B1
:10071C0000F00EF9206002E01C481A4D2060184BC6
:10072C009A681206120FAA18127BD04060609A6861
:10073C00011C5205520FAA18127BD140A1609B6874
:10074C009B045B0FED182B7BD840E06038BD002B71
:10075C0009D153681B045B0F8020013300029840C1
:10076C002060084DDBE7064B5B68F3E70648054D58
:10077C002060D4E70548584300F0DAF82060CEE753
:10078C0000380240000000200024F40000127A001F
:10079C00C0239B02021C10B51A409A4208D1094B87
:1007AC0009491C682140C024E40520400843186016
:1007BC00044B0649586B01405963596B0A435A6301
:1007CC0010BDC04600380240FFFFFF9FFFFFFCFF3B
:1007DC00014B18607047C046D8064742014B186061
:1007EC007047C046DC064742044BDA69002902D147
:1007FC008243DA6170471043D861FBE7003802404E
:10080C00044B1A6A002902D182431A6270471043C2
:10081C001862FBE700380240044B5A6A002902D1E7
:10082C0082435A62704710435862FBE7003802401B
:10083C00044B1A69002902D182431A617047104394
:10084C001861FBE700380240044B5A69002902D1B9
:10085C0082435A61704710435861FBE700380240ED
:10086C00044B9A69002902D182439A617047104364
:10087C009861FBE700380240044B9A6A002902D1C8
:10088C0082439A62704710439862FBE7003802403B
:10089C00044BDA6A002902D18243DA6270471043B2
:1008AC00D862FBE700380240044B1A6B002902D1D6
:1008BC0082431A63704710431863FBE70038024009
:1008CC00044B1A78002902D182431A7070471043E6
:1008DC001870FBE70D3802404309012B08D0064B7A
:1008EC005B6B1F221040C340181C0123184070473B
:1008FC00014B1B68F5E7C04600380240034B8022D1
:10090C00596B52040A435A637047C0460038024080
:10091C00034BDB681840431E9841C0B27047C04679
:10092C0000380240014B18707047C0460E38024028
:10093C00002934D00123002210B488422CD3012486
:10094C002407A14204D2814202D209011B01F8E71B
:10095C00E400A14204D2814202D249005B00F8E7D4
:10096C00884201D3401A1A434C08A04202D3001B00
:10097C005C0822438C08A04202D3001B9C08224333
:10098C00CC08A04202D3001BDC082243002803D071
:10099C001B0901D00909E3E7101C10BC70470028A3
:1009AC0001D00020C04307B4024802A140180290B5
:1009BC0003BDC046190000000029F0D003B5FFF7B5
:1009CC00B9FF0EBC4243891A1847C0467047C0464F
:1009DC0010B5802086B080050121FFF71DFF012096
:1009EC00011CFFF701FF20236A460024009369468F
:1009FC0003230D481371D471FFF7ECFC02A91020EE
:100A0C00029403940594FFF787FB201C02A9FFF7BF
:100A1C0083FB10200121FFF79DFB201C0121FFF718
:100A2C0099FB06B010BDC0460000024008B5FFF7A8
:100A3C00CFFF034B00201A88111CFFF7EFFBFEE7DA
:100A4C001C0000203C4B37B51968802252000A4329
:100A5C001A609968394A0A409A601968384A0A40FB
:100A6C001A601968374A0A401A609A6836490A406F
:100A7C009A600022DA600092019218688022520279
:100A8C0002431A60081C19688022920211400191DD
:100A9C000099013100910199002904D1009CA021F9
:100AAC00C9018C42EFD119680A4000D00122019291
:100ABC000199012904D0254B802212059A6037BD7B
:100ACC00234A042514682C431460146802252C4313
:100ADC001460146821431160596A802252050A433C
:100AEC005A6280211B4A090111605168CC06FCD462
:100AFC009A689A609A689A609A689A609968912242
:100B0C0001409960996812040A439A60196880221E
:100B1C0052040A431A601968074A8801FBD5906889
:100B2C0003218843906090680143916099680C227E
:100B3C000A400C2AFAD1BEE7003802400CC0FF88EC
:100B4C00FEFFFEEEFFFFFBFFFFFF02FF00ED00E0EC
:100B5C00003C024000700040002100F004B80D4B36
:100B6C005B58435004310C480C4B42189A42FFF42A
:100B7C00F6AF0B4A00F003B8002342F8043B094BD4
:100B8C009A42FFF4F9AFFFF75DFF00F00FF8FFF7A3
:100B9C004DFF7047180C00080000002020000020BA
:100BAC002000002020000020FFF7FEBF70B50D4E86
:100BBC000D4D0024AD1BAD1005D0A300F35801342E
:100BCC009847A542F9D100F015F8084E084D0024BD
:100BDC00AD1BAD1005D0A300F35801349847A542C6
:100BEC00F9D170BD00000000000000000000000002
:100BFC0000000000F8B5C046F8BC08BC9E46704723
:0C0C0C00F8B5C046F8BC08BC9E46704716
:100C1800030406080C101820300000000000000033
:100C2800010203040102030406070809A00F0000DB
:0400000508000B657F
:00000001FF
