:020000040800F2
:100000000020002065150008B5150008B51500088A
:10001000B5150008B5150008B5150008000000006A
:10002000000000000000000000000000B5150008FE
:10003000B515000800000000B5150008B51500084A
:10004000B5150008B5150008B5150008B515000868
:10005000B5150008B5150008B5150008B515000858
:10006000B5150008B5150008B5150008B515000848
:10007000B5150008B5150008B5150008B515000838
:10008000B5150008B5150008B5150008B515000828
:10009000B5150008B5150008B5150008B515000818
:1000A000B5150008B5150008B5150008B515000808
:1000B000B5150008B5150008B5150008B5150008F8
:1000C000B5150008B5150008B5150008B5150008E8
:1000D000B5150008B5150008B5150008B5150008D8
:1000E000B5150008B5150008B5150008B5150008C8
:1000F000B51500080000000000000000000000002E
:0C01000000000000000000005FF808F1A3
:10010C0008B5304B98421ED02F4B984224D02F4B21
:10011C0098422AD02E4B984230D02E4B984236D053
:10012C002D4B98423CD02D4B984242D02C4B9842B0
:10013C0000D008BD2020012100F082FA20200021EF
:10014C0000F07EFAF5E70120012100F079FA012098
:10015C00002100F075FAECE70220012100F070FAA2
:10016C000220002100F06CFAE3E70420012100F0EA
:10017C0067FA0420002100F063FADAE70820012175
:10018C0000F05EFA0820002100F05AFAD1E71020A6
:10019C00012100F055FA1020002100F051FAC8E7B7
:1001AC004020012100F04CFA4020002100F048FAD8
:1001BC00BFE78020012100F043FA8020002100F0ED
:1001CC003FFAB6E70000024000040240000802407B
:1001DC00000C02400010024000180240001C0240BB
:1001EC0000140240F0B544465F4656464D46F0B406
:1001FC008C460F68032183B0002400230126884617
:10020C0003E001330234102B26D0321C9A403D1CE3
:10021C0015409542F5D142460168A240D2431140A7
:10022C00016061460979934602680191A14011432E
:10023C00016001990139C9B2012914D9C1685A4622
:10024C000A406546C260EA79C168A2400A4301339C
:10025C00C2600234102BD8D103B03CBC90469946F6
:10026C00A246AB46F0BD81685A4611406246816099
:10027C0052798168A240114381604168624689B21B
:10028C00A9438180917945689940294389B281803D
:10029C00D4E7C046034B03600023037143718371A1
:1002AC00C3717047FFFF0000802382B05B02019393
:1002BC00019B0B430193019BC361C161019BC36112
:1002CC00C3690193C369019302B070470069084088
:1002DC00431E9841C0B27047006980B27047C04657
:1002EC0040690840431E9841C0B27047406980B2D3
:1002FC007047C0460183704741837047002A01D183
:10030C00418370470183FCE78182704743699BB24C
:10031C00594081827047C04607230B40C9088900A9
:10032C00401810B5016A9B000F249C40A143016248
:10033C00016A9A40131C0B43036210BD0C4B8022C4
:10034C00196852000A431A6099680A4A0A409A606E
:10035C001968094A0A401A601968084A0A401A6062
:10036C009968074A0A409A600022DA607047C046D2
:10037C00003802400CC0FF88FEFFFEEEFFFFFBFFC3
:10038C00FFFF02FF024B00221A7018707047C04624
:10039C0002380240002382B001938022A0230B4933
:1003AC009202D8000B6813420BD1019B01330193CD
:1003BC00019B8342F6D1054B18688003C00F02B035
:1003CC007047019B01330193019BF4E70038024015
:1003DC00014B18707047C04607380240034B044A63
:1003EC0059680A40104358607047C04600380240B4
:1003FC00FF1FFFFF014B18607047C04620004742AB
:10040C00034B044A596800020A4010435860704775
:10041C0000380240FFE0FFFF014B18607047C046F8
:10042C0000004742024B00221A7018707047C046F9
:10043C0035380240014B18607047C0468006474271
:10044C001043024B014319707047C0460A380240F2
:10045C00014B18607047C04660004742014B186062
:10046C007047C04670004742014B18607047C04649
:10047C00AC064742014B0843187070470B380240DA
:10048C00034B03219A688A43104398607047C04617
:10049C0000380240024B0C209B6818407047C04645
:1004AC0000380240034BF0219A688A43104398604D
:1004BC007047C04600380240034B044A99680A4012
:1004CC00104398607047C04600380240FFF8FFFFA9
:1004DC00034B044A9968C0000A4010439860704767
:1004EC0000380240FFC7FFFF294A38B593680C213A
:1004FC00041C0B40042B41D031D9082B14D00C2BED
:10050C0039D19368234D91689B021B0FEB5C090258
:10051C009268890FDBB20131D00333D41E485843A3
:10052C0000F0BEFE206002E01C481A4D2060184B03
:10053C009A681206120FAA18127BD04060609A6853
:10054C00011C5205520FAA18127BD140A1609B6866
:10055C009B045B0FED182B7BD840E06038BD002B63
:10056C0009D153681B045B0F8020013300029840B3
:10057C002060084DDBE7064B5B68F3E70648054D4A
:10058C002060D4E70548584300F08AFE2060CEE78F
:10059C0000380240000000200024F40000127A0011
:1005AC00C0239B02021C10B51A409A4208D1094B79
:1005BC0009491C682140C024E40520400843186008
:1005CC00044B0649586B01405963596B0A435A63F3
:1005DC0010BDC04600380240FFFFFF9FFFFFFCFF2D
:1005EC00014B18607047C046D8064742014B186053
:1005FC007047C046DC064742044BDA69002902D139
:10060C008243DA6170471043D861FBE7003802403F
:10061C00044B1A6A002902D182431A6270471043B4
:10062C001862FBE700380240044B5A6A002902D1D9
:10063C0082435A62704710435862FBE7003802400D
:10064C00044B1A69002902D182431A617047104386
:10065C001861FBE700380240044B5A69002902D1AB
:10066C0082435A61704710435861FBE700380240DF
:10067C00044B9A69002902D182439A617047104356
:10068C009861FBE700380240044B9A6A002902D1BA
:10069C0082439A62704710439862FBE7003802402D
:1006AC00044BDA6A002902D18243DA6270471043A4
:1006BC00D862FBE700380240044B1A6B002902D1C8
:1006CC0082431A63704710431863FBE700380240FB
:1006DC00044B1A78002902D182431A7070471043D8
:1006EC001870FBE70D3802404309012B08D0064B6C
:1006FC005B6B1F221040C340181C0123184070472D
:10070C00014B1B68F5E7C04600380240034B8022C2
:10071C00596B52040A435A637047C0460038024072
:10072C00034BDB681840431E9841C0B27047C0466B
:10073C0000380240014B18707047C0460E3802401A
:10074C0008B58023DB05984221D0354B984227D041
:10075C00344B98422DD0344B984233D0334B984283
:10076C0039D0334B98423FD0324B984245D0324B24
:10077C0098424BD0314B984200D008BD102001213B
:10078C00FFF76AFF10200021FFF766FFF5E7012055
:10079C000121FFF76DFF01200021FFF769FFECE756
:1007AC0002200121FFF764FF02200021FFF760FF08
:1007BC00E3E704200121FFF75BFF04200021FFF792
:1007CC0057FFDAE708200121FFF752FF082000212C
:1007DC00FFF74EFFD1E710200121FFF749FF102052
:1007EC000021FFF745FFC8E720200121FFF740FF5C
:1007FC0020200021FFF73CFFBFE704200121FFF779
:10080C002BFF04200021FFF727FFB6E7082001216A
:10081C00FFF722FF08200021FFF71EFFADE7C046BF
:10082C000004004000080040000C00400010004094
:10083C000014004000080140000C01400010014071
:10084C000368802210B59BB2D20590421AD0104A90
:10085C00904217D00F4A904214D00F4A904211D0B8
:10086C000E4A904206D00E4A904203D00D4C0A8993
:10087C002340134303804B68C3620B880385012319
:10088C00838210BD702293434A881343E8E7C04625
:10089C000004004000080040000C00400010004024
:1008AC0000140040FFFCFFFF01235B424360002368
:1008BC000380038143807047018582827047C04664
:1008CC000268024B13401943018070478FFF0000F0
:1008DC0041627047C1627047406A7047806A80B25B
:1008EC007047C046002904D10268054B13400380B1
:1008FC007047036802229BB213430380F8E7C0469B
:10090C00FDFF0000002904D10268054B1340038051
:10091C007047036804229BB213430380F8E7C04678
:10092C00FBFF0000002904D10268054B1340038033
:10093C007047036880229BB213430380F8E7C046DC
:10094C007FFF00000268044B1340038003689BB2D6
:10095C00194301807047C046F7FF00000268044B42
:10096C001340038003689BB2194301807047C04653
:10097C00FFFC0000002904D10268054B13400380E2
:10098C007047036801229BB213430380F8E7C0460B
:10099C00FEFF0000026A0A4B30B513400384046A60
:1009AC00084B82694D881A400B881A43064B1C4031
:1009BC000B8949682B43234341630283038430BD75
:1009CC00FEFF00008CFF0000FDFF0000026A0D4BD3
:1009DC0010B513400384046A0B4B82691A400B88D0
:1009EC001B021A43094B92B223400C892401234366
:1009FC004C889BB22401496823439BB281630283D8
:100A0C00038410BDEFFF0000FF8F0000DFFF00002C
:100A1C00026A0C4B10B513400384046A0A4BC2697A
:100A2C001A400B881A43094B23400C892402234398
:100A3C004C889BB22402496823439BB2C1638283D6
:100A4C00038410BDFFFE00008FFF0000FFFD0000BF
:100A5C00026A0D4B10B513400384046A0B4BC26938
:100A6C001A400B881B021A43094B92B223400C8983
:100A7C00240323434C889BB22403496823439BB231
:100A8C0001648283038410BDFFEF0000FF8F000020
:100A9C00FFDF000000230380438043600381704725
:100AAC0030B5036A01249BB28C40A343051C03841C
:100ABC000823081C183598430DD0043989B249080D
:100ACC0049190868094B120203400B600B6892B27B
:100ADC001A430A6030BD490869180B6870208343BB
:100AEC000B600B681A430A60F4E7C046FF8FFFFFE8
:100AFC004163704781637047C163704701647047FD
:100B0C008269024B13401943018370478FFF000029
:100B1C008269044B1A400B02111C194389B20183E0
:100B2C007047C046FF8F0000C269024B1340194347
:100B3C00818370478FFF0000C269044B1A400B027F
:100B4C00111C194389B281837047C046FF8F000086
:100B5C008269024B1340194301837047F7FF000071
:100B6C008269044B1A400B02111C194389B2018390
:100B7C007047C046FFF70000C269024B134019438F
:100B8C0081837047F7FF0000C269044B1A400B02C7
:100B9C00111C194389B281837047C046FFF70000CE
:100BAC008269024B1340194301837047FBFF00001D
:100BBC008269044B1A400B02111C194389B2018340
:100BCC007047C046FFFB0000C269024B134019433B
:100BDC0081837047FBFF0000C269044B1A400B0273
:100BEC00111C194389B281837047C046FFFB00007A
:100BFC008269024B13401943018370477FFF000049
:100C0C00836909025B045B0C194389B20183704749
:100C1C00C269024B13401943818370477FFF000068
:100C2C00C36909025B045B0C194389B28183704769
:100C3C00026A024B1340194301847047FDFF000008
:100C4C00026A044B1A400B01111C194389B201842E
:100C5C007047C046DFFF0000026A044B1A400B02CB
:100C6C00111C194389B201847047C046FFFD000076
:100C7C00026A044B1A400B03111C194389B20184FC
:100C8C007047C046FFDF00008268044B13400381AD
:100C9C0083689BB2194301817047C046F7FF00007F
:100CAC00036A10B501248C409BB2A3430384036AEE
:100CBC008A40111C194389B2018410BD0B88F0B510
:100CCC00002B2BD0042B4AD0082B00D16DE0056AE9
:100CDC00474A4B882A408E880C890284C769454A4A
:100CEC0036023A403243240392B2056A2243424C04
:100CFC001B032C401C438023A4B25B0192B2234300
:100D0C00828303843D4ACB88C1691B020A408283DB
:100D1C00C26992B213439BB28383F0BD046A384A12
:100D2C008B8822404D880E8902848769354A3601AA
:100D3C003A40324392B2046A1A43334B02831C404A
:100D4C0001232B4323439BB20384CA882F4B816915
:100D5C000B40038383699BB213430383DDE7056A6E
:100D6C002B4A4C882A408B880E8902848769214A39
:100D7C0036033A4032431B0292B2056A1A43254BA2
:100D8C0024012B4023439BB2102492B223430283B1
:100D9C0003841A4ACB8881691B020A400283826948
:100DAC0092B213439BB20383B7E7056A1A4A8C8845
:100DBC002A404B880E890284C769124A36013A4090
:100DCC00324392B2056A2243144C1B022C401C4342
:100DDC008023A4B25B00234382830384CA880B4B19
:100DEC00C1690B408383C3699BB21343838394E72C
:100DFC00FFEF0000FF0C0000FF5F0000FFF300009E
:100E0C00FEFF00000CFF0000F5FF0000F3FF0000E8
:100E1C00EFFF00005FFF0000FFFE0000FFF5000089
:100E2C0000230122038043808280C38003817047AA
:100E3C004B88F0B55C425C416200574692468A880A
:100E4C004E464546E0B4551E6E1EB5410226751B36
:100E5C000E88002E4ED0076A4F4EBC46371C664695
:100E6C0037400C8907848669076AB0464B4EBC46EE
:100E7C0047463740B846464627033743BEB2484F2D
:100E8C00120232431E013B1C67463B4033439BB26C
:100E9C001026334392B202830384424ACB88816981
:100EAC0057460A4002838269190292B20A4392B2EF
:100EBC000283016A3C4A0A400284866922013B4C47
:100ECC00016A344014433A4AA4B20A4001210A434D
:100EDC0025431743ADB2058307848169354A0A401F
:100EEC000283826992B2134303831CBC90469946D9
:100EFC00A246F0BD0E89076AB2462B4EBC46371C83
:100F0C006646374007848669076AB046274EBC465A
:100F1C0047463740B846574646463F013743BFB26F
:100F2C003A430126224F90466246B4461740624629
:100F3C0013433B439BB24646068303841D4ACB882E
:100F4C00816956460A40028382692D0292B21A4385
:100F5C000283016A104A1B020A40028487690F4A05
:100F6C00016A174032033E1C16430D4AB6B21140BB
:100F7C0010221143354362010C1C1443ADB205839E
:100F8C0004848169074A0A400283826992B213433E
:100F9C009BB20383A9E7C046EFFF0000FF0C0000E3
:100FAC005FFF0000FFF30000FEFF00000CFF0000DD
:100FBC00F5FF0000F3FF0000406B7047806B70473B
:100FCC00C06B7047006C70478269044B13400383FD
:100FDC0083699BB2194301837047C046F3FF00003D
:100FEC008269054B09021340038383699BB2194341
:100FFC0089B201837047C046FFF30000C269044BFD
:10100C0013408383C3699BB2194381837047C046E5
:10101C00F3FF0000C269054B090213408383C369C7
:10102C009BB2194389B281837047C046FFF300001D
:10103C00C3689BB2002A02D18B438381704719434A
:10104C008181FBE78182704700690840431E98410B
:10105C00C0B27047C94389B2018270470369C06846
:10106C0082B200200B4203D011404A1E9141C8B2FB
:10107C007047C046C94389B2018270471143482367
:10108C00C1527047C3689BB2002A02D18B43838143
:10109C00704719438181FBE7002904D14268054B55
:1010AC00134083807047436808229BB213438380AC
:1010BC00F8E7C046F7FF00008268024B134003813B
:1010CC007047C046F8FF00008268054B1340194377
:1010DC000181836807229BB2134303817047C0468A
:1010EC008FFF000070B5056A60291ED01B4C1B01D8
:1010FC002C40048485691A4C066A2540012425433A
:10110C00ADB22B43174D9BB235402C43A4B22243B6
:10111C00038302848268144B134019430181836852
:10112C0007229BB21343038170BD104C2C400484E6
:10113C0086690F4C056A26408024640026431C03F4
:10114C00331C23430B4C9BB2254010242543140124
:10115C002A1C224392B203830284DBE7FEFF0000C9
:10116C000CFF0000F5FF00008FFF0000EFFF0000F8
:10117C00FF0C00005FFF000010B51B0284681A43CF
:10118C00FF231C40224392B2114301818268034B1E
:10119C00134077221343038110BDC04688FF000023
:1011AC0010B51B0284681A43FF231C40224392B2E1
:1011BC00114301818268802392B2DB0113430381C6
:1011CC0010BDC0468268024B134019430181704721
:1011DC008FFF00004268044B1340838043689BB22E
:1011EC00194381807047C0468FFF00008268044B12
:1011FC001340038183689BB2194301817047C04639
:10120C00F8FF00008268044B1340038183689BB293
:10121C00194301817047C0467FFF000030B58568D7
:10122C00FF242C4021430A431B021A4392B2028131
:10123C0030BDC046F0B58768094C85693C402143F8
:10124C00084C066A2C400225FF352C43064D1B0129
:10125C0035402A431A4392B2018104830284F0BDC3
:10126C00F8FF0000FCFC0000DDFF0000002904D1A9
:10127C004268054B134083807047436880229BB2C1
:10128C0013438380F8E7C0467FFF0000026D0B0C10
:10129C001A405023C252026D114389B2C152704799
:1012AC00002934D00123002210B488422CD301240D
:1012BC002407A14204D2814202D209011B01F8E7A2
:1012CC00E400A14204D2814202D249005B00F8E75B
:1012DC00884201D3401A1A434C08A04202D3001B87
:1012EC005C0822438C08A04202D3001B9C082243BA
:1012FC00CC08A04202D3001BDC082243002803D0F8
:10130C001B0901D00909E3E7101C10BC7047002829
:10131C0001D00020C04307B4024802A1401802903B
:10132C0003BDC046190000000029F0D003B5FFF73B
:10133C00B9FF0EBC4243891A1847C0467047C046D5
:10134C0082B000230093009B834205DA019B01339A
:10135C000193009B0133F5E702B07047012070B593
:10136C00011CFFF761F90120011CFFF745F92B4C1B
:10137C000125201CFEF78EFF02232360237100261B
:10138C000323211C26486371A671E571FEF72AFF21
:10139C002A1C2348291CFEF7BFFF224B2249186840
:1013AC00FFF77EFF2149224B013880B2188008805C
:1013BC00204B8020C0054B604E80FFF741FA1E4940
:1013CC0080206023C0050B804D80FFF7FFFA802042
:1013DC00C005291CFFF7CEFA341C184B9C4209DCC3
:1013EC008020211CC005FFF785FB6420FFF7A8FFB8
:1013FC000134F2E71248FFF7A3FF0E4C8020211CAA
:10140C00C005FFF777FB013C6420FFF799FF002C28
:10141C00F4D10B48FFF794FFDFE7C0463C000020F7
:10142C00000002401C00002040420F00240000205D
:10143C0020000020E703000030000020E60300003D
:10144C00102700003C4B37B51968802252000A4324
:10145C001A609968394A0A409A601968384A0A40F1
:10146C001A601968374A0A401A609A6836490A4065
:10147C009A600022DA60009201921868802252026F
:10148C0002431A60081C19688022920211400191D3
:10149C000099013100910199002904D1009CA021EF
:1014AC00C9018C42EFD119680A4000D00122019287
:1014BC000199012904D0254B802212059A6037BD71
:1014CC00234A042514682C431460146802252C4309
:1014DC001460146821431160596A802252050A4332
:1014EC005A6280211B4A090111605168CC06FCD458
:1014FC009A689A609A689A609A689A609968912238
:10150C0001409960996812040A439A601968802214
:10151C0052040A431A601968074A8801FBD590687F
:10152C0003218843906090680143916099680C2274
:10153C000A400C2AFAD1BEE7003802400CC0FF88E2
:10154C00FEFFFEEEFFFFFBFFFFFF02FF00ED00E0E2
:10155C00003C024000700040002100F004B80D4B2C
:10156C005B58435004310C480C4B42189A42FFF420
:10157C00F6AF0B4A00F003B8002342F8043B094BCA
:10158C009A42FFF4F9AFFFF75DFF00F00FF8FFF799
:10159C00E5FE70471816000800000020200000200F
:1015AC002000002044000020FFF7FEBF70B50D4E58
:1015BC000D4D0024AD1BAD1005D0A300F358013424
:1015CC009847A542F9D100F015F8084E084D0024B3
:1015DC00AD1BAD1005D0A300F35801349847A542BC
:1015EC00F9D170BD000000000000000000000000F8
:1015FC0000000000F8B5C046F8BC08BC9E46704719
:0C160C00F8B5C046F8BC08BC9E4670470C
:10161800030406080C101820300000000000000029
:101628000102030401020304060708090048E8014F
:040000050800156575
:00000001FF
