:020000040800F2
:1000000000200020A1110008F1110008F1110008E2
:10001000F1110008F1110008F111000800000000C2
:10002000000000000000000000000000F1110008C6
:10003000F111000800000000F1110008B10C0008E7
:10004000F1110008F1110008F1110008F111000888
:10005000F1110008F1110008F1110008F111000878
:10006000F1110008F1110008F1110008F111000868
:10007000F1110008F1110008F1110008F111000858
:10008000F1110008F1110008F1110008F111000848
:10009000F1110008F1110008F1110008F111000838
:1000A000F1110008F1110008F1110008F111000828
:1000B000F1110008F1110008F1110008F111000818
:1000C000F1110008F1110008F1110008F111000808
:1000D000F1110008F1110008B10D0008F11100083C
:1000E000F1110008F1110008F1110008F1110008E8
:1000F000F1110008000000000000000000000000F6
:0C01000000000000000000005FF808F1A3
:10010C0008B5304B98421ED02F4B984224D02F4B21
:10011C0098422AD02E4B984230D02E4B984236D053
:10012C002D4B98423CD02D4B984242D02C4B9842B0
:10013C0000D008BD2020012100F0E8FA2020002189
:10014C0000F0E4FAF5E70120012100F0DFFA0120CC
:10015C00002100F0DBFAECE70220012100F0D6FAD6
:10016C000220002100F0D2FAE3E70420012100F084
:10017C00CDFA0420002100F0C9FADAE708200121A9
:10018C0000F0C4FA0820002100F0C0FAD1E71020DA
:10019C00012100F0BBFA1020002100F0B7FAC8E7EB
:1001AC004020012100F0B2FA4020002100F0AEFA0C
:1001BC00BFE78020012100F0A9FA8020002100F087
:1001CC00A5FAB6E700000240000402400008024015
:1001DC00000C02400010024000180240001C0240BB
:1001EC0000140240F0B544465F4656464D46F0B406
:1001FC008C460F68032183B0002400230126884617
:10020C0003E001330234102B26D0321C9A403D1CE3
:10021C0015409542F5D142460168A240D2431140A7
:10022C00016061460979934602680191A14011432E
:10023C00016001990139C9B2012914D9C1685A4622
:10024C000A406546C260EA79C168A2400A4301339C
:10025C00C2600234102BD8D103B03CBC90469946F6
:10026C00A246AB46F0BD81685A4611406246816099
:10027C0052798168A240114381604168624689B21B
:10028C00A9438180917945689940294389B281803D
:10029C00D4E7C046034B03600023037143718371A1
:1002AC00C3717047FFFF0000802382B05B02019393
:1002BC00019B0B430193019BC361C161019BC36112
:1002CC00C3690193C369019302B070470069084088
:1002DC00431E9841C0B27047006980B27047C04657
:1002EC0040690840431E9841C0B27047406980B2D3
:1002FC007047C0460183704741837047002A01D183
:10030C00418370470183FCE78182704743699BB24C
:10031C00594081827047C04607230B40C9088900A9
:10032C00401810B5016A9B000F249C40A143016248
:10033C00016A9A40131C0B43036210BD024B184315
:10034C00024BD8607047C0460000FA0500ED00E093
:10035C00C378002B0BD103781F22590913400122BB
:10036C009A40131C2031134A89008B507047124B52
:10037C000421DA68E023DB0093431B0A4278C91A94
:10038C00C9B28A40D1B20F221A41131C82781A408A
:10039C000A430378094912015B18D2B21A70037828
:1003AC001F225909134001229A40131C014A89004B
:1003BC008B50DBE700E100E000ED00E000E400E042
:1003CC00024B1940024B08439860704780FFFF1F97
:1003DC0000ED00E0044B1A69002902D182431A6136
:1003EC00704710431861FBE700ED00E0054B1A68FD
:1003FC00042803D004218A431A6070471043186004
:10040C00FBE7C04610E000E00C4B8022196852005C
:10041C000A431A6099680A4A0A409A601968094A9C
:10042C000A401A601968084A0A401A609968074A13
:10043C000A409A600022DA607047C04600380240D9
:10044C000CC0FF88FEFFFEEEFFFFFBFFFFFF02FF6D
:10045C00024B00221A7018707047C04602380240D6
:10046C00002382B001938022A0230B499202D80072
:10047C000B6813420BD1019B01330193019B834207
:10048C00F6D1054B18688003C00F02B07047019B72
:10049C0001330193019BF4E700380240014B1870C3
:1004AC007047C04607380240034B044A59680A405B
:1004BC00104358607047C04600380240FF1FFFFFD2
:1004CC00014B18607047C04620004742034B044A5A
:1004DC00596800020A4010435860704700380240C7
:1004EC00FFE0FFFF014B18607047C0460000474219
:1004FC00024B00221A7018707047C0463538024003
:10050C00014B18607047C046800647421043024BAF
:10051C00014319707047C0460A380240014B1860FD
:10052C007047C04660004742014B18607047C04698
:10053C0070004742014B18607047C046AC064742FA
:10054C00014B0843187070470B380240034B0321D2
:10055C009A688A43104398607047C046003802403E
:10056C00024B0C209B6818407047C0460038024074
:10057C00034BF0219A688A43104398607047C04639
:10058C0000380240034B044A99680A4010439860B3
:10059C007047C04600380240FFF8FFFF034B044A87
:1005AC009968C0000A4010439860704700380240B8
:1005BC00FFC7FFFF294A38B593680C21041C0B4078
:1005CC00042B41D031D9082B14D00C2B39D1936882
:1005DC00234D91689B021B0FEB5C09029268890FFB
:1005EC00DBB20131D00333D41E48584300F0F8FA83
:1005FC00206002E01C481A4D2060184B9A681206C5
:10060C00120FAA18127BD04060609A68011C520528
:10061C00520FAA18127BD140A1609B689B045B0F00
:10062C00ED182B7BD840E06038BD002B09D1536806
:10063C001B045B0F80200133000298402060084DA2
:10064C00DBE7064B5B68F3E70648054D2060D4E713
:10065C000548584300F0C4FA2060CEE70038024049
:10066C00000000200024F40000127A00C0239B023A
:10067C00021C10B51A409A4208D1094B09491C6852
:10068C002140C024E405204008431860044B06496F
:10069C00586B01405963596B0A435A6310BDC046ED
:1006AC0000380240FFFFFF9FFFFFFCFF014B18606B
:1006BC007047C046D8064742014B18607047C04689
:1006CC00DC064742044BDA69002902D18243DA6125
:1006DC0070471043D861FBE700380240044B1A6A9C
:1006EC00002902D182431A62704710431862FBE75B
:1006FC0000380240044B5A6A002902D182435A62E4
:10070C00704710435862FBE700380240044B1A69EB
:10071C00002902D182431A61704710431861FBE72C
:10072C0000380240044B5A69002902D182435A61B5
:10073C00704710435861FBE700380240044B9A693C
:10074C00002902D182439A61704710439861FBE7FC
:10075C0000380240044B9A6A002902D182439A6203
:10076C00704710439862FBE700380240044BDA6A8A
:10077C00002902D18243DA6270471043D862FBE74A
:10078C0000380240044B1A6B002902D182431A63D1
:10079C00704710431863FBE700380240044B1A788B
:1007AC00002902D182431A70704710431870FBE77E
:1007BC000D3802404309012B08D0064B5B6B1F22FE
:1007CC001040C340181C012318407047014B1B6894
:1007DC00F5E7C04600380240034B8022596B5204A7
:1007EC000A435A637047C04600380240034BDB682B
:1007FC001840431E9841C0B27047C04600380240B2
:10080C00014B18707047C0460E38024008B5234B98
:10081C00984217D0224B98421FD0224B984227D097
:10082C00214B98422FD0214B984200D008BD8020FC
:10083C0040030121FFF782FF802040030021FFF7D6
:10084C007DFFF3E78020C0010121FFF76BFF8020C3
:10085C00C0010021FFF766FFE8E78020800201213C
:10086C00FFF76CFF802080020021FFF767FFDDE7B8
:10087C008020C0020121FFF761FF8020C00200210F
:10088C00FFF75CFFD2E7802000030121FFF756FF42
:10089C00802000030021FFF751FFC7E7003801401B
:1008AC000044004000480040004C00400050004014
:1008BC0070B52E4B028A0D1C1340CA88098913434C
:1008CC00038282892A4B84B01A40AB88041C0B43E8
:1008DC0069890B4313438381828A264B1340AA896F
:1008EC00134383826846FFF765FE234B9C423BD043
:1008FC00029BA28912B2002A22DB9A00D318296823
:10090C0098001818890000F06BF9051C281C64214C
:10091C0000F066F90601330964225343ED1AA389EA
:10092C001BB2002B16DB2D01281C3230642100F089
:10093C0057F90F2318400643B6B2268104B070BD98
:10094C009A00D318296898001818490000F048F943
:10095C00051CDBE7ED00281C3230642100F040F967
:10096C00072318400643E7E7039BC2E7FFCFFFFFCF
:10097C00F3E9FFFFFFFCFFFF0038014096239B01CA
:10098C0003600C2200238380C38003814281838116
:10099C007047C046028A064B10B51A404C880B882B
:1009AC0023438C88C98823430B431343038210BD14
:1009BC00FFF0FFFF0023038043808380C3807047D8
:1009CC008289002903D1044B134083817047802313
:1009DC009B0113438381F9E7FFDFFFFF038BFF22AA
:1009EC0093430383038B194301837047002904D17C
:1009FC0083895B045B0C83817047828980231B0293
:100A0C0013438381F8E7C046828A002903D1044B43
:100A1C0013408382704780231B0113438382F9E7C1
:100A2C00FFF7FFFFC905C90D818070478088C0059D
:100A3C00C00D7047038A0F2293430382038A194324
:100A4C0001827047002904D1838902229343838158
:100A5C0070478289022313438381F9E78289034B10
:100A6C00134083818389194381817047FFF7FFFF0E
:100A7C00038A202293430382038A1943018270471D
:100A8C00028A002903D1044B134003827047802350
:100A9C00DB0113430382F9E7FFBFFFFF82890123C8
:100AAC00134383817047C046002904D1838A0822EE
:100ABC00934383827047828A082313438382F9E726
:100ACC00038BFF2213400383038B09021943018319
:100ADC007047C046002904D1838A20229343838225
:100AEC007047828A202313438382F9E7002904D1BB
:100AFC00838A1022934383827047828A1023134384
:100B0C008382F9E7838A042293438382838A19437D
:100B1C0081827047002904D1838A02229343838205
:100B2C007047828A022313438382F9E7838A002A5F
:100B3C0002D18B438382704719438182FBE7C04605
:100B4C001F2310B5CCB2194001238B40191C64092A
:100B5C00031C012C0CD01433022C0BD0002A03D113
:100B6C001A688A431A6010BD1A6811431960FAE7B3
:100B7C000C33F3E7043BF1E700880840431E98412F
:100B8C00C0B27047C94389B2018070471F220A4026
:100B9C0010B50124CBB294405B09221C012B10D060
:100BAC00022B11D0848A2240008883B20020002AB4
:100BBC0006D0090A012088400340581E8341D8B250
:100BCC0010BD84892240EFE7048A2240ECE7C0463E
:100BDC00090A01238B40D94389B201807047C04672
:100BEC00002934D00123002210B488422CD30124D4
:100BFC002407A14204D2814202D209011B01F8E769
:100C0C00E400A14204D2814202D249005B00F8E721
:100C1C00884201D3401A1A434C08A04202D3001B4D
:100C2C005C0822438C08A04202D3001B9C08224380
:100C3C00CC08A04202D3001BDC082243002803D0BE
:100C4C001B0901D00909E3E7101C10BC70470028F0
:100C5C0001D00020C04307B4024802A14018029002
:100C6C0003BDC046190000000029F0D003B5FFF702
:100C7C00B9FF0EBC4243891A1847C0467047C0469C
:100C8C00024B18601A68002AFCD170471C00002027
:100C9C00034B1A68002A02D01A68013A1A6070478E
:100CAC001C00002008B5FFF7F3FF08BD38B5041C85
:100CBC000D1C201C8021FFF75FFF0028F9D0201CA1
:100CCC00291CFFF7AFFE201C4021FFF755FF002821
:100CDC00F9D038BD1FB500F0CDF96846FFF76AFCB6
:100CEC00FA210098C900FFF77BFF144B0138144A16
:100CFC00984207D8134BF0215860D17700219960A6
:100D0C00072119604023D37700F0D4F900F0A2F842
:100D1C0000F01AF90120011C00F0E2F80A4800F07A
:100D2C0009F9E120000300F0E3F908484121FFF73D
:100D3C00BDFF0020011C00F0D3F8FEE7FFFFFF0011
:100D4C0004ED00E010E000E0D81200080044004080
:100D5C0038B500240A4D0120295D0134C9B200F0D8
:100D6C0043F8FC235B009C42F4D1FA22281CFF328E
:100D7C00002100F05DFA03484121FFF797FF38BDD1
:100D8C00220000200044004008B505482021FFF750
:100D9C00F3FE0028F9D00248FFF748FEC0B208BDA8
:100DAC000044004008B50C480C49FFF7EFFE002842
:100DBC0010D0FFF7E9FF0A4BF8211A88FF318A425D
:100DCC0004D80849885401321A8003E000221A80A2
:100DDC00FFF7BEFF08BDC0460044004025050000DB
:100DEC00200000202200002038B50D1C8021021CA0
:100DFC00C9001748002A00D00122FFF77FFA802192
:100E0C00134849010022FFF779FA08248021104881
:100E1C0049000022FFF772FA80216BB20C4889005E
:100E2C000122002B00DB0022FFF768FA80216D0005
:100E3C00074849000122013CEDB2FFF75FFA002C94
:100E4C00E4D18021024849010122FFF757FA38BD4D
:100E5C000000024073B50120011CFFF733FC1F4D4D
:100E6C00F8235B0180266A4601243601281C009376
:100E7C006946022353711471D471FFF7B3F9311C15
:100E8C00281C221CFFF73AFA0A20FFF7F9FE311C46
:100E9C00281C0022FFF732FA0A20FFF7F1FE221C71
:100EAC00281C311CFFF72AFA00202121FFF79CFF98
:100EBC000020B121FFF798FF00200421FFF794FFD9
:100ECC0000201521FFF790FF00202021FFF78CFF59
:100EDC0000200C21FFF788FF73BDC04600000240C4
:100EEC0010B50C1C802101430020FFF77DFF402131
:100EFC0021430020FFF778FF10BD000038B5041C1B
:100F0C0005256C4301200021FFF76EFF084D2D19BC
:100F1C0000242B19A03B197801200134FFF764FF42
:100F2C00052CF6D101200021FFF75EFF38BDC0462D
:100F3C00E012000810B5041C2078002803D00134FE
:100F4C00FFF7DCFFF8E710BD10B5FC2464000120AE
:100F5C000021013CFFF748FF002CF8D110BD000028
:100F6C003C4B37B51968802252000A431A609968C5
:100F7C00394A0A409A601968384A0A401A60196856
:100F8C00374A0A401A609A6836490A409A60002229
:100F9C00DA600092019218688022520202431A60B1
:100FAC00081C1968802292021140019100990131AC
:100FBC0000910199002904D1009CA021C9018C4207
:100FCC00EFD119680A4000D0012201920199012940
:100FDC0004D0254B802212059A6037BD234A042584
:100FEC0014682C431460146802252C431460146894
:100FFC0021431160596A802252050A435A628021AA
:10100C001B4A090111605168CC06FCD49A689A609D
:10101C009A689A609A689A609968912201409960DE
:10102C00996812040A439A601968802252040A4390
:10103C001A601968074A8801FBD590680321884318
:10104C00906090680143916099680C220A400C2AC8
:10105C00FAD1BEE7003802400CC0FF88FEFFFEEE5E
:10106C00FFFFFBFFFFFF02FF00ED00E0003C024032
:10107C000070004008B58020FFF77AFA0120FFF7D6
:10108C0031FA0020FFF74AFA2120FFF793FB0028E2
:10109C00FAD000200C21C022FFF738FA0120FFF70C
:1010AC003DFA3920FFF786FB0028FAD00320FFF722
:1010BC004DFA08BD13B501210220FFF703FB0B4CC1
:1010CC006846FFF7E7F880236A460093201C01234B
:1010DC00694613715371D371FFF784F84023201CB8
:1010EC0069460093FFF77EF813BDC046000402402A
:1010FC00F0B58DB001900120011CFFF7E3FA224DF1
:10110C00802080020121FFF7F5FA002404A90C23AA
:10111C0002260327281C04930E714F718C71CC711D
:10112C00FFF760F8281C391C0722FFF7F5F8072297
:10113C00311C281C154DFFF7EFF806A8FFF73AFCF9
:10114C00281C06A9FFF726FC019B08A90893281C5C
:10115C000C234B818C80CC800C818C81FFF7A8FBFD
:10116C000122281C0A49FFF7EBFC03A82623447034
:10117C00847001240370C470FFF7EAF8281C211C4A
:10118C00FFF71EFC0DB0F0BD000002400044004013
:10119C0025050000002100F004B80D4B5B584350AE
:1011AC0004310C480C4B42189A42FFF4F6AF0B4A30
:1011BC0000F003B8002342F8043B094B9A42FFF4B9
:1011CC00F9AFFFF7CDFE00F00FF8FFF783FD704786
:1011DC00D8140008000000201C0000201C00002077
:1011EC001C020020FFF7FEBF70B50D4E0D4D002404
:1011FC00AD1BAD1005D0A300F35801349847A542A0
:10120C00F9D100F057F9084E084D0024AD1BAD1074
:10121C0005D0A300F35801349847A542F9D170BD0D
:10122C0000000000000000000000000000000000B2
:10123C00F0B5830746D0541E002A42D0CEB2031C10
:10124C00032503E0621E002C3BD0141C01335A1EF4
:10125C0016702B42F6D1032C2BD9FF250D402A02F8
:10126C0015432A0415430F2C15D9271C103F3F0991
:10127C001E1C3A011036B6181A1C15605560956084
:10128C00D5601032B242F8D101373F010F22DB1981
:10129C001440032C0DD9271FBF08BA001E1DB61809
:1012AC001A1C20C2B242FCD10137BF000322DB1949
:1012BC001440002C05D01C19C9B219700133A3427B
:1012CC00FBD1F0BD141C031CC5E7C046776F726BD5
:1012DC00696E6700000000000000005F000000075E
:1012EC00000700147F147F14242A7F2A122313086A
:1012FC00646236495522500005030000001C22414F
:10130C00000041221C0014083E081408083E08087E
:10131C000050300000080808080800606000002039
:10132C00100804023E5149453E00427F4000426194
:10133C005149462141454B311814127F1027454520
:10134C0045393C4A49493001710905033649494937
:10135C0036064949291E0036360000005636000074
:10136C00081422410014141414140041221408020D
:10137C0001510906324979413E7E1111117E7F4996
:10138C004949363E414141227F4141221C7F494916
:10139C0049417F090909013E4149497A7F080808FA
:1013AC007F00417F41002040413F017F08142241D2
:1013BC007F404040407F020C027F7F0408107F3E3C
:1013CC004141413E7F090909063E4151215E7F0999
:1013DC00192946464949493101017F01013F4040E5
:1013EC00403F1F2040201F3F4038403F63140814EB
:1013FC006307087008076151494543007F4141006C
:10140C0002040810200041417F0004020102044044
:10141C0040404040000102040020545454787F485E
:10142C004444383844444420384444487F38545465
:10143C005418087E0901020C5252523E7F080404D3
:10144C007800447D40002040443D007F102844003B
:10145C0000417F40007C041804787C080404783830
:10146C00444444387C14141408081414187C7C0864
:10147C000404084854545420043F4440203C404049
:10148C00207C1C2040201C3C4030403C4428102830
:10149C00440C5050503C4464544C440008364100B9
:1014AC0000007F00000041360800100808100800FA
:1014BC0006090906F8B5C046F8BC08BC9E4670473C
:0C14CC00F8B5C046F8BC08BC9E4670474E
:1014D800030406080C10182030000000000000006B
:0C14E800010203040102030406070809C6
:04000005080011A13D
:00000001FF
