:020000040800F2
:1000000000200020810F0008D10F0008D10F000848
:10001000D10F0008D10F0008D10F00080000000028
:10002000000000000000000000000000D10F0008E8
:10003000D10F000800000000D10F0008D10F000808
:10004000D10F0008D10F0008D10F0008D10F000810
:10005000D10F0008D10F0008D10F0008D10F000800
:10006000D10F0008D10F0008D10F0008D10F0008F0
:10007000D10F0008D10F0008D10F0008D10F0008E0
:10008000D10F0008D10F0008D10F0008D10F0008D0
:10009000D10F0008D10F0008D10F0008D10F0008C0
:1000A000D10F0008D10F0008D10F0008D10F0008B0
:1000B000D10F0008D10F0008D10F0008D10F0008A0
:1000C000D10F0008D10F0008D10F0008D10F000890
:1000D000D10F0008D90D0008D10F0008D10F00087A
:1000E000D10F0008D10F0008D10F0008D10F000870
:1000F000D10F000800000000000000000000000018
:0C01000000000000000000005FF808F1A3
:10010C0008B5304B98421ED02F4B984224D02F4B21
:10011C0098422AD02E4B984230D02E4B984236D053
:10012C002D4B98423CD02D4B984242D02C4B9842B0
:10013C0000D008BD2020012100F0E8FA2020002189
:10014C0000F0E4FAF5E70120012100F0DFFA0120CC
:10015C00002100F0DBFAECE70220012100F0D6FAD6
:10016C000220002100F0D2FAE3E70420012100F084
:10017C00CDFA0420002100F0C9FADAE708200121A9
:10018C0000F0C4FA0820002100F0C0FAD1E71020DA
:10019C00012100F0BBFA1020002100F0B7FAC8E7EB
:1001AC004020012100F0B2FA4020002100F0AEFA0C
:1001BC00BFE78020012100F0A9FA8020002100F087
:1001CC00A5FAB6E700000240000402400008024015
:1001DC00000C02400010024000180240001C0240BB
:1001EC0000140240F0B544465F4656464D46F0B406
:1001FC008C460F68032183B0002400230126884617
:10020C0003E001330234102B26D0321C9A403D1CE3
:10021C0015409542F5D142460168A240D2431140A7
:10022C00016061460979934602680191A14011432E
:10023C00016001990139C9B2012914D9C1685A4622
:10024C000A406546C260EA79C168A2400A4301339C
:10025C00C2600234102BD8D103B03CBC90469946F6
:10026C00A246AB46F0BD81685A4611406246816099
:10027C0052798168A240114381604168624689B21B
:10028C00A9438180917945689940294389B281803D
:10029C00D4E7C046034B03600023037143718371A1
:1002AC00C3717047FFFF0000802382B05B02019393
:1002BC00019B0B430193019BC361C161019BC36112
:1002CC00C3690193C369019302B070470069084088
:1002DC00431E9841C0B27047006980B27047C04657
:1002EC0040690840431E9841C0B27047406980B2D3
:1002FC007047C0460183704741837047002A01D183
:10030C00418370470183FCE78182704743699BB24C
:10031C00594081827047C04607230B40C9088900A9
:10032C00401810B5016A9B000F249C40A143016248
:10033C00016A9A40131C0B43036210BD024B184315
:10034C00024BD8607047C0460000FA0500ED00E093
:10035C00C378002B0BD103781F22590913400122BB
:10036C009A40131C2031134A89008B507047124B52
:10037C000421DA68E023DB0093431B0A4278C91A94
:10038C00C9B28A40D1B20F221A41131C82781A408A
:10039C000A430378094912015B18D2B21A70037828
:1003AC001F225909134001229A40131C014A89004B
:1003BC008B50DBE700E100E000ED00E000E400E042
:1003CC00024B1940024B08439860704780FFFF1F97
:1003DC0000ED00E0044B1A69002902D182431A6136
:1003EC00704710431861FBE700ED00E0054B1A68FD
:1003FC00042803D004218A431A6070471043186004
:10040C00FBE7C04610E000E00C4B8022196852005C
:10041C000A431A6099680A4A0A409A601968094A9C
:10042C000A401A601968084A0A401A609968074A13
:10043C000A409A600022DA607047C04600380240D9
:10044C000CC0FF88FEFFFEEEFFFFFBFFFFFF02FF6D
:10045C00024B00221A7018707047C04602380240D6
:10046C00002382B001938022A0230B499202D80072
:10047C000B6813420BD1019B01330193019B834207
:10048C00F6D1054B18688003C00F02B07047019B72
:10049C0001330193019BF4E700380240014B1870C3
:1004AC007047C04607380240034B044A59680A405B
:1004BC00104358607047C04600380240FF1FFFFFD2
:1004CC00014B18607047C04620004742034B044A5A
:1004DC00596800020A4010435860704700380240C7
:1004EC00FFE0FFFF014B18607047C0460000474219
:1004FC00024B00221A7018707047C0463538024003
:10050C00014B18607047C046800647421043024BAF
:10051C00014319707047C0460A380240014B1860FD
:10052C007047C04660004742014B18607047C04698
:10053C0070004742014B18607047C046AC064742FA
:10054C00014B0843187070470B380240034B0321D2
:10055C009A688A43104398607047C046003802403E
:10056C00024B0C209B6818407047C0460038024074
:10057C00034BF0219A688A43104398607047C04639
:10058C0000380240034B044A99680A4010439860B3
:10059C007047C04600380240FFF8FFFF034B044A87
:1005AC009968C0000A4010439860704700380240B8
:1005BC00FFC7FFFF294A38B593680C21041C0B4078
:1005CC00042B41D031D9082B14D00C2B39D1936882
:1005DC00234D91689B021B0FEB5C09029268890FFB
:1005EC00DBB20131D00333D41E48584300F0F8FA83
:1005FC00206002E01C481A4D2060184B9A681206C5
:10060C00120FAA18127BD04060609A68011C520528
:10061C00520FAA18127BD140A1609B689B045B0F00
:10062C00ED182B7BD840E06038BD002B09D1536806
:10063C001B045B0F80200133000298402060084DA2
:10064C00DBE7064B5B68F3E70648054D2060D4E713
:10065C000548584300F0C4FA2060CEE70038024049
:10066C00000000200024F40000127A00C0239B023A
:10067C00021C10B51A409A4208D1094B09491C6852
:10068C002140C024E405204008431860044B06496F
:10069C00586B01405963596B0A435A6310BDC046ED
:1006AC0000380240FFFFFF9FFFFFFCFF014B18606B
:1006BC007047C046D8064742014B18607047C04689
:1006CC00DC064742044BDA69002902D18243DA6125
:1006DC0070471043D861FBE700380240044B1A6A9C
:1006EC00002902D182431A62704710431862FBE75B
:1006FC0000380240044B5A6A002902D182435A62E4
:10070C00704710435862FBE700380240044B1A69EB
:10071C00002902D182431A61704710431861FBE72C
:10072C0000380240044B5A69002902D182435A61B5
:10073C00704710435861FBE700380240044B9A693C
:10074C00002902D182439A61704710439861FBE7FC
:10075C0000380240044B9A6A002902D182439A6203
:10076C00704710439862FBE700380240044BDA6A8A
:10077C00002902D18243DA6270471043D862FBE74A
:10078C0000380240044B1A6B002902D182431A63D1
:10079C00704710431863FBE700380240044B1A788B
:1007AC00002902D182431A70704710431870FBE77E
:1007BC000D3802404309012B08D0064B5B6B1F22FE
:1007CC001040C340181C012318407047014B1B6894
:1007DC00F5E7C04600380240034B8022596B5204A7
:1007EC000A435A637047C04600380240034BDB682B
:1007FC001840431E9841C0B27047C04600380240B2
:10080C00014B18707047C0460E38024008B5234B98
:10081C00984217D0224B98421FD0224B984227D097
:10082C00214B98422FD0214B984200D008BD8020FC
:10083C0040030121FFF782FF802040030021FFF7D6
:10084C007DFFF3E78020C0010121FFF76BFF8020C3
:10085C00C0010021FFF766FFE8E78020800201213C
:10086C00FFF76CFF802080020021FFF767FFDDE7B8
:10087C008020C0020121FFF761FF8020C00200210F
:10088C00FFF75CFFD2E7802000030121FFF756FF42
:10089C00802000030021FFF751FFC7E7003801401B
:1008AC000044004000480040004C00400050004014
:1008BC0070B52E4B028A0D1C1340CA88098913434C
:1008CC00038282892A4B84B01A40AB88041C0B43E8
:1008DC0069890B4313438381828A264B1340AA896F
:1008EC00134383826846FFF765FE234B9C423BD043
:1008FC00029BA28912B2002A22DB9A00D318296823
:10090C0098001818890000F06BF9051C281C64214C
:10091C0000F066F90601330964225343ED1AA389EA
:10092C001BB2002B16DB2D01281C3230642100F089
:10093C0057F90F2318400643B6B2268104B070BD98
:10094C009A00D318296898001818490000F048F943
:10095C00051CDBE7ED00281C3230642100F040F967
:10096C00072318400643E7E7039BC2E7FFCFFFFFCF
:10097C00F3E9FFFFFFFCFFFF0038014096239B01CA
:10098C0003600C2200238380C38003814281838116
:10099C007047C046028A064B10B51A404C880B882B
:1009AC0023438C88C98823430B431343038210BD14
:1009BC00FFF0FFFF0023038043808380C3807047D8
:1009CC008289002903D1044B134083817047802313
:1009DC009B0113438381F9E7FFDFFFFF038BFF22AA
:1009EC0093430383038B194301837047002904D17C
:1009FC0083895B045B0C83817047828980231B0293
:100A0C0013438381F8E7C046828A002903D1044B43
:100A1C0013408382704780231B0113438382F9E7C1
:100A2C00FFF7FFFFC905C90D818070478088C0059D
:100A3C00C00D7047038A0F2293430382038A194324
:100A4C0001827047002904D1838902229343838158
:100A5C0070478289022313438381F9E78289034B10
:100A6C00134083818389194381817047FFF7FFFF0E
:100A7C00038A202293430382038A1943018270471D
:100A8C00028A002903D1044B134003827047802350
:100A9C00DB0113430382F9E7FFBFFFFF82890123C8
:100AAC00134383817047C046002904D1838A0822EE
:100ABC00934383827047828A082313438382F9E726
:100ACC00038BFF2213400383038B09021943018319
:100ADC007047C046002904D1838A20229343838225
:100AEC007047828A202313438382F9E7002904D1BB
:100AFC00838A1022934383827047828A1023134384
:100B0C008382F9E7838A042293438382838A19437D
:100B1C0081827047002904D1838A02229343838205
:100B2C007047828A022313438382F9E7838A002A5F
:100B3C0002D18B438382704719438182FBE7C04605
:100B4C001F2310B5CCB2194001238B40191C64092A
:100B5C00031C012C0CD01433022C0BD0002A03D113
:100B6C001A688A431A6010BD1A6811431960FAE7B3
:100B7C000C33F3E7043BF1E700880840431E98412F
:100B8C00C0B27047C94389B2018070471F220A4026
:100B9C0010B50124CBB294405B09221C012B10D060
:100BAC00022B11D0848A2240008883B20020002AB4
:100BBC0006D0090A012088400340581E8341D8B250
:100BCC0010BD84892240EFE7048A2240ECE7C0463E
:100BDC00090A01238B40D94389B201807047C04672
:100BEC00002934D00123002210B488422CD30124D4
:100BFC002407A14204D2814202D209011B01F8E769
:100C0C00E400A14204D2814202D249005B00F8E721
:100C1C00884201D3401A1A434C08A04202D3001B4D
:100C2C005C0822438C08A04202D3001B9C08224380
:100C3C00CC08A04202D3001BDC082243002803D0BE
:100C4C001B0901D00909E3E7101C10BC70470028F0
:100C5C0001D00020C04307B4024802A14018029002
:100C6C0003BDC046190000000029F0D003B5FFF702
:100C7C00B9FF0EBC4243891A1847C0467047C0469C
:100C8C0013B501210220FFF71DFD0B4C6846FFF741
:100C9C0001FB80236A460093201C012369461371D3
:100CAC005371D371FFF79EFA4023201C69460093C1
:100CBC00FFF798FA13BDC0460004024070B5051C3E
:100CCC0001208AB0011CFFF7FDFC8020C00101212E
:100CDC00FFF704FDC0231F4EDB0002A90293022381
:100CEC0000240B71301C03234B718C71CC71FFF7FA
:100CFC0079FA301C09210722FFF70EFB0722301C62
:100D0C000A21154EFFF708FB04A8FFF753FE301C11
:100D1C0004A9FFF73FFE06A90C23301C4B818C80E5
:100D2C00CC800C818C810695FFF7C2FD0122301C12
:100D3C000A49FFF705FF01A825234470847001249C
:100D4C000370C470FFF704FB301C211CFFF738FE46
:100D5C000AB070BD000002400038014025050000BB
:100D6C0038B5041C0D1C201C8021FFF705FF002842
:100D7C00F9D0201C291CFFF755FE201C4021FFF741
:100D8C00FBFE0028F9D038BDF8B5071C081C0D1C5B
:100D9C0000F08CF92C1C061C631BB34205DA21787D
:100DAC00381CFFF7DDFF0134F6E7F8BD08B5FFF797
:100DBC0067FF96208001FFF781FF02480249FFF789
:100DCC00E3FFFEE7003801403817000838B51C4C2B
:100DDC001C49201CFFF7DAFE002830D0A1881A4BE2
:100DEC00C9B21A4C0A2906D01A78072A03D8A1547A
:100DFC0001321A7023E00022201C15491A7000F0F1
:100E0C00B7FA051E03D013488021012208E0201CEC
:100E1C00114900F0ADFA002804D00E4880212A1C9C
:100E2C00FFF76CFA0648211CFFF7AEFF04480B498C
:100E3C00FFF7AAFF201C0021092200F0E9F838BDB9
:100E4C0000380140250500001C0000201D0000207A
:100E5C0058170008000402405B17000855170008DB
:100E6C003C4B37B51968802252000A431A609968C6
:100E7C00394A0A409A601968384A0A401A60196857
:100E8C00374A0A401A609A6836490A409A6000222A
:100E9C00DA600092019218688022520202431A60B2
:100EAC00081C1968802292021140019100990131AD
:100EBC0000910199002904D1009CA021C9018C4208
:100ECC00EFD119680A4000D0012201920199012941
:100EDC0004D0254B802212059A6037BD234A042585
:100EEC0014682C431460146802252C431460146895
:100EFC0021431160596A802252050A435A628021AB
:100F0C001B4A090111605168CC06FCD49A689A609E
:100F1C009A689A609A689A609968912201409960DF
:100F2C00996812040A439A601968802252040A4391
:100F3C001A601968074A8801FBD590680321884319
:100F4C00906090680143916099680C220A400C2AC9
:100F5C00FAD1BEE7003802400CC0FF88FEFFFEEE5F
:100F6C00FFFFFBFFFFFF02FF00ED00E0003C024033
:100F7C0000700040002100F004B80D4B5B5843504A
:100F8C0004310C480C4B42189A42FFF4F6AF0B4A52
:100F9C0000F003B8002342F8043B094B9A42FFF4DB
:100FAC00F9AFFFF75DFF00F00FF8FFF7FFFE70479A
:100FBC0078170008000000201C0000201C000020F6
:100FCC0028000020FFF7FEBF70B50D4E0D4D00241C
:100FDC00AD1BAD1005D0A300F35801349847A542C2
:100FEC00F9D100F0B7FB084E084D0024AD1BAD1035
:100FFC0005D0A300F35801349847A542F9D170BD30
:10100C0000000000000000000000000000000000D4
:10101C00F0B5830746D0541E002A42D0CEB2031C32
:10102C00032503E0621E002C3BD0141C01335A1E16
:10103C0016702B42F6D1032C2BD9FF250D402A021A
:10104C0015432A0415430F2C15D9271C103F3F09B3
:10105C001E1C3A011036B6181A1C156055609560A6
:10106C00D5601032B242F8D101373F010F22DB19A3
:10107C001440032C0DD9271FBF08BA001E1DB6182B
:10108C001A1C20C2B242FCD10137BF000322DB196B
:10109C001440002C05D01C19C9B219700133A3429D
:1010AC00FBD1F0BD141C031CC5E7C0460023C25C79
:1010BC000133002AFBD1581E7047C046F0B5944648
:1010CC00012244465F464D46564690465242F0B485
:1010DC0093460124002563198B420CD25A4686187C
:1010EC00C75C365DB74232D21D1C01249A1A6319B3
:1010FC0090468B42F2D301234446664601225B4262
:10110C0034609146012400259846631999420ED902
:10111C008246C2445246C75C165DB7421FD944464C
:10112C001C1BA1461D1C012463199942F0D843468F
:10113C00584601330130834203D34946624611605D
:10114C00181C3CBC90469946A246AB46F0BDB74233
:10115C000DD00123AB46984601350124BBE7B742BD
:10116C0009D00126A846B14601350124CDE74445F6
:10117C0005D00134AFE74C4504D00134C5E71D1C44
:10118C000124A8E71D1C0124BFE7C046F0B54D465D
:10119C005F4656464446F0B4734C8146A544101C39
:1011AC000E1C151C191C03AA1C1CFFF787FFFFAA99
:1011BC00834604AB143210C39342FCD1601E00234F
:1011CC00002C07D0EA5CC11A920004AF0133B9506D
:1011DC00A342F7D1039A281CA9185A4600F014FA16
:1011EC0000286CD100218846012359460022591A47
:1011FC000192671EA2460091321C44464646564454
:10120C004B4698180021B21A00F0BCF900284DD1B9
:10121C00002E4BD049468B19013B1B7804AA9B002E
:10122C00D358002B0AD0002C04D0039A934201D23D
:10123C0051468B1A98440024321CDFE7231E5B4571
:10124C0000D25B46BB4211D24846404402E0013317
:10125C00BB420BD2E95CC25C9142F8D000990024ED
:10126C000A1C4244D2189046321CC7E75A46013A2F
:10127C005C4500D371E048464044A95C835C9942CC
:10128C006BD1B446061C04E0E85CF15C884203D1E7
:10129C001A1C531E9442F7D36646013494425ED80E
:1012AC00039C5346A044321C1C1BA7E700202F4B69
:1012BC009D443CBC90469946A246AB46F0BD5F4669
:1012CC00E31B5B4547D3013303935A4601239A1A18
:1012DC0000210092671E321CA0460E1C4346494654
:1012EC00F4188818A21A002100F04CF90028DDD15E
:1012FC00002CDBD049460B19013B1B7804AA9B0040
:10130C00D358002B1FD18819BB450ED288195A46C9
:10131C00A95C825C5B46914204D017E0E95CC25C3C
:10132C00914213D10133BB42F8D35A46531E02D219
:10133C00BDE7013BBBD3E95CC25C9142F9D0039A97
:10134C00B618221CCAE7F618221CC7E700998A199E
:10135C00D618221CC2E75B46B5E75A469DE74146C4
:10136C00404601914844A2E7ECFBFFFF1404000047
:10137C00F0B55F46444656464D46F0B4037885B00A
:10138C00071C0C1C002B00D1F4E00A78002A15D0A5
:10139C000D1C0126011C02E02A78002A0BD09B1A96
:1013AC005A42534101311E400B780135002BF3D1C9
:1013BC002B78002B09D1381C002E08D005B03CBC72
:1013CC0090469946A246AB46F0BD0020F6E7781C45
:1013DC00217800F03FF92D1B061EF6D0012DEDD023
:1013EC007B190127984200D81F1A1F2D06D9301CD3
:1013FC00391C221C2B1CFFF7C9FEDFE7291C03AA92
:10140C00201CFFF75BFE8046039842462118201CE7
:10141C0000F0FAF800285ED101235B429B460021C4
:10142C00012340468A46181A3A1CC344371C0190C3
:10143C002E1C5546A9198946B8188A1A002100F0A5
:10144C00A1F80028C1D14A46002ABED05346C24555
:10145C0000D243469E420DD9FA18E15C525D91428E
:10146C0005D031E07A19E15CD25C91422CD1013388
:10147C009E42F7D85A46D0457FD979198C4660469A
:10148C005844A15C0378994277D1231C6146544699
:10149C00B446AA460E1C1D1C04E0E85CF15C8842B4
:1014AC0003D11A1C531E9442F7D32B1C6646554687
:1014BC00A2461C1C53460133934260D8039B4A46F8
:1014CC00ED18F31A9A46B5E7019800214519ED1865
:1014DC008A464A46AEE740462B1A434500D243465D
:1014EC0001330393424601239A1A01235B420021E4
:1014FC009B469246B146C3443A1C0E1C77194B4688
:10150C0098180021BA1A00F03DF8002800D05CE7CA
:10151C00002F00D159E749468819454511D90B1CB4
:10152C0043444046225C9B5D9A421ED14946434649
:10153C00881903E0E15CC25C914217D101339D42F2
:10154C00F8D859465B46013100D137E7E15CC25C03
:10155C00914206D1013B00D230E7E15CC25C914282
:10156C00F8D0039AB6183A1CC8E743465644F61806
:10157C003A1CC3E70D1C01261AE742469AE7781974
:10158C001CE7C046F0B5CCB2830737D0531E002AF7
:10159C001FD00278A2421DD0032505E0002B18D0E5
:1015AC000278013BA24215D001302842F6D1032B20
:1015BC0011D8002B0DD00278A2420BD0421CC318BC
:1015CC0004E00132511E0978A14203D0101E98424A
:1015DC00F7D10020F0BDFF2631400E0231430E043E
:1015EC00074D0E430268074F7240D11991432942AF
:1015FC00DFD1043B0430032BF4D8DAE7131CD6E715
:10160C0080808080FFFEFEFE30B5032A1DD9031CAE
:10161C000B439C0710D005780C78431C8018A5420E
:10162C0005D015E01D780C780133A54210D101319D
:10163C008342F7D1002030BD03680C68A34204D16B
:10164C00043A04300431032AF6D8002AE3D1F1E736
:10165C00281BF0E7CAB2F0B5002A3DD083070ED0A4
:10166C000378002B5BD09A4235D0032404E0037836
:10167C00002B54D09A422ED001302042F7D1FF23B8
:10168C0019400B0219430B0419430368254E1C1C0B
:10169C004C40A519A5432C1C9D199D432B1C224E77
:1016AC00234333420DD1043003681E4F0C1C5C40A5
:1016BC00E519A5432C1CDD199D432B1C23433342F8
:1016CC00F1D00378002B04D129E001300378002BF2
:1016DC0025D09A42F9D1F0BD84070AD00378002BAB
:1016EC00F9D0032202E00378002BF4D00130104231
:1016FC00F9D103680B4E0C499A199A430A4206D148
:10170C0004300368074FDA199A430A42F8D0037879
:10171C00002BE0D001300378002BFBD1DBE700205D
:10172C00D9E7C046FFFEFEFE808080800D0A496E20
:10173C00697420636F6D706C657465212048656CED
:10174C006C6F20576F726C64210D0A006F6E006F06
:10175C0066660000F8B5C046F8BC08BC9E467047EB
:0C176C00F8B5C046F8BC08BC9E467047AB
:10177800030406080C1018203000000000000000C8
:0C17880001020304010203040607080923
:0400000508000F815F
:00000001FF
