:020000040800F2
:1000000000200020ED1900083D1A00083D1A0008E4
:100010003D1A00083D1A00083D1A000800000000C3
:100020000000000000000000000000003D1A000871
:100030003D1A0008000000003D1A00083D1A0008A3
:100040003D1A00083D1A00083D1A00083D1A000834
:100050003D1A00083D1A00083D1A00083D1A000824
:100060003D1A00083D1A00083D1A00083D1A000814
:100070003D1A00083D1A00083D1A00083D1A000804
:100080003D1A00083D1A00083D1A00083D1A0008F4
:100090003D1A00083D1A00083D1A00083D1A0008E4
:1000A0003D1A00083D1A00083D1A00083D1A0008D4
:1000B000E91600083D1A00083D1A00083D1A00081C
:1000C0003D1A00083D1A00083D1A00083D1A0008B4
:1000D0003D1A00083D1A00083D1A00083D1A0008A4
:1000E0003D1A00083D1A00083D1A00083D1A000894
:1000F0003D1A0008000000000000000000000000A1
:0C01000000000000000000005FF808F1A3
:10010C0008B5304B98421ED02F4B984224D02F4B21
:10011C0098422AD02E4B984230D02E4B984236D053
:10012C002D4B98423CD02D4B984242D02C4B9842B0
:10013C0000D008BD2020012100F0E8FA2020002189
:10014C0000F0E4FAF5E70120012100F0DFFA0120CC
:10015C00002100F0DBFAECE70220012100F0D6FAD6
:10016C000220002100F0D2FAE3E70420012100F084
:10017C00CDFA0420002100F0C9FADAE708200121A9
:10018C0000F0C4FA0820002100F0C0FAD1E71020DA
:10019C00012100F0BBFA1020002100F0B7FAC8E7EB
:1001AC004020012100F0B2FA4020002100F0AEFA0C
:1001BC00BFE78020012100F0A9FA8020002100F087
:1001CC00A5FAB6E700000240000402400008024015
:1001DC00000C02400010024000180240001C0240BB
:1001EC0000140240F0B544465F4656464D46F0B406
:1001FC008C460F68032183B0002400230126884617
:10020C0003E001330234102B26D0321C9A403D1CE3
:10021C0015409542F5D142460168A240D2431140A7
:10022C00016061460979934602680191A14011432E
:10023C00016001990139C9B2012914D9C1685A4622
:10024C000A406546C260EA79C168A2400A4301339C
:10025C00C2600234102BD8D103B03CBC90469946F6
:10026C00A246AB46F0BD81685A4611406246816099
:10027C0052798168A240114381604168624689B21B
:10028C00A9438180917945689940294389B281803D
:10029C00D4E7C046034B03600023037143718371A1
:1002AC00C3717047FFFF0000802382B05B02019393
:1002BC00019B0B430193019BC361C161019BC36112
:1002CC00C3690193C369019302B070470069084088
:1002DC00431E9841C0B27047006980B27047C04657
:1002EC0040690840431E9841C0B27047406980B2D3
:1002FC007047C0460183704741837047002A01D183
:10030C00418370470183FCE78182704743699BB24C
:10031C00594081827047C04607230B40C9088900A9
:10032C00401810B5016A9B000F249C40A143016248
:10033C00016A9A40131C0B43036210BD024B184315
:10034C00024BD8607047C0460000FA0500ED00E093
:10035C00C378002B0BD103781F22590913400122BB
:10036C009A40131C2031134A89008B507047124B52
:10037C000421DA68E023DB0093431B0A4278C91A94
:10038C00C9B28A40D1B20F221A41131C82781A408A
:10039C000A430378094912015B18D2B21A70037828
:1003AC001F225909134001229A40131C014A89004B
:1003BC008B50DBE700E100E000ED00E000E400E042
:1003CC00024B1940024B08439860704780FFFF1F97
:1003DC0000ED00E0044B1A69002902D182431A6136
:1003EC00704710431861FBE700ED00E0054B1A68FD
:1003FC00042803D004218A431A6070471043186004
:10040C00FBE7C04610E000E00C4B8022196852005C
:10041C000A431A6099680A4A0A409A601968094A9C
:10042C000A401A601968084A0A401A609968074A13
:10043C000A409A600022DA607047C04600380240D9
:10044C000CC0FF88FEFFFEEEFFFFFBFFFFFF02FF6D
:10045C00024B00221A7018707047C04602380240D6
:10046C00002382B001938022A0230B499202D80072
:10047C000B6813420BD1019B01330193019B834207
:10048C00F6D1054B18688003C00F02B07047019B72
:10049C0001330193019BF4E700380240014B1870C3
:1004AC007047C04607380240034B044A59680A405B
:1004BC00104358607047C04600380240FF1FFFFFD2
:1004CC00014B18607047C04620004742034B044A5A
:1004DC00596800020A4010435860704700380240C7
:1004EC00FFE0FFFF014B18607047C0460000474219
:1004FC00024B00221A7018707047C0463538024003
:10050C00014B18607047C046800647421043024BAF
:10051C00014319707047C0460A380240014B1860FD
:10052C007047C04660004742014B18607047C04698
:10053C0070004742014B18607047C046AC064742FA
:10054C00014B0843187070470B380240034B0321D2
:10055C009A688A43104398607047C046003802403E
:10056C00024B0C209B6818407047C0460038024074
:10057C00034BF0219A688A43104398607047C04639
:10058C0000380240034B044A99680A4010439860B3
:10059C007047C04600380240FFF8FFFF034B044A87
:1005AC009968C0000A4010439860704700380240B8
:1005BC00FFC7FFFF294A38B593680C21041C0B4078
:1005CC00042B41D031D9082B14D00C2B39D1936882
:1005DC00234D91689B021B0FEB5C09029268890FFB
:1005EC00DBB20131D00333D41E48584300F0BEFEB9
:1005FC00206002E01C481A4D2060184B9A681206C5
:10060C00120FAA18127BD04060609A68011C520528
:10061C00520FAA18127BD140A1609B689B045B0F00
:10062C00ED182B7BD840E06038BD002B09D1536806
:10063C001B045B0F80200133000298402060084DA2
:10064C00DBE7064B5B68F3E70648054D2060D4E713
:10065C000548584300F08AFE2060CEE7003802407F
:10066C00000000200024F40000127A00C0239B023A
:10067C00021C10B51A409A4208D1094B09491C6852
:10068C002140C024E405204008431860044B06496F
:10069C00586B01405963596B0A435A6310BDC046ED
:1006AC0000380240FFFFFF9FFFFFFCFF014B18606B
:1006BC007047C046D8064742014B18607047C04689
:1006CC00DC064742044BDA69002902D18243DA6125
:1006DC0070471043D861FBE700380240044B1A6A9C
:1006EC00002902D182431A62704710431862FBE75B
:1006FC0000380240044B5A6A002902D182435A62E4
:10070C00704710435862FBE700380240044B1A69EB
:10071C00002902D182431A61704710431861FBE72C
:10072C0000380240044B5A69002902D182435A61B5
:10073C00704710435861FBE700380240044B9A693C
:10074C00002902D182439A61704710439861FBE7FC
:10075C0000380240044B9A6A002902D182439A6203
:10076C00704710439862FBE700380240044BDA6A8A
:10077C00002902D18243DA6270471043D862FBE74A
:10078C0000380240044B1A6B002902D182431A63D1
:10079C00704710431863FBE700380240044B1A788B
:1007AC00002902D182431A70704710431870FBE77E
:1007BC000D3802404309012B08D0064B5B6B1F22FE
:1007CC001040C340181C012318407047014B1B6894
:1007DC00F5E7C04600380240034B8022596B5204A7
:1007EC000A435A637047C04600380240034BDB682B
:1007FC001840431E9841C0B27047C04600380240B2
:10080C00014B18707047C0460E38024008B5802363
:10081C00DB05984221D0354B984227D0344B984277
:10082C002DD0344B984233D0334B984239D0334B84
:10083C0098423FD0324B984245D0324B98424BD0E5
:10084C00314B984200D008BD10200121FFF76AFF00
:10085C0010200021FFF766FFF5E701200121FFF7CB
:10086C006DFF01200021FFF769FFECE70220012159
:10087C00FFF764FF02200021FFF760FFE3E704208D
:10088C000121FFF75BFF04200021FFF757FFDAE798
:10089C0008200121FFF752FF08200021FFF74EFF2F
:1008AC00D1E710200121FFF749FF10200021FFF7AD
:1008BC0045FFC8E720200121FFF740FF2020002141
:1008CC00FFF73CFFBFE704200121FFF72BFF0420BB
:1008DC000021FFF727FFB6E708200121FFF722FFD1
:1008EC0008200021FFF71EFFADE7C04600040040C2
:1008FC0000080040000C00400010004000140040B4
:10090C0000080140000C01400010014003688022E7
:10091C0010B59BB2D20590421AD0104A904217D013
:10092C000F4A904214D00F4A904211D00E4A904276
:10093C0006D00E4A904203D00D4C0A892340134333
:10094C0003804B68C3620B8803850123838210BD2F
:10095C00702293434A881343E8E7C04600040040E2
:10096C0000080040000C0040001000400014004043
:10097C00FFFCFFFF01235B424360002303800381E4
:10098C0043807047018582827047C0460268024BE3
:10099C0013401943018070478FFF0000416270477C
:1009AC00C1627047406A7047806A80B27047C04627
:1009BC00002904D10268054B13400380704703687B
:1009CC0002229BB213430380F8E7C046FDFF0000F0
:1009DC00002904D10268054B13400380704703685B
:1009EC0004229BB213430380F8E7C046FBFF0000D0
:1009FC00002904D10268054B13400380704703683B
:100A0C0080229BB213430380F8E7C0467FFF0000AF
:100A1C000268044B1340038003689BB219430180A6
:100A2C007047C046F7FF00000268044B1340038078
:100A3C0003689BB2194301807047C046FFFC00005D
:100A4C00002904D10268054B1340038070470368EA
:100A5C0001229BB213430380F8E7C046FEFF00005F
:100A6C00026A0A4B30B513400384046A084B82694E
:100A7C004D881A400B881A43064B1C400B89496859
:100A8C002B43234341630283038430BDFEFF0000EC
:100A9C008CFF0000FDFF0000026A0D4B10B51340E7
:100AAC000384046A0B4B82691A400B881B021A439D
:100ABC00094B92B223400C89240123434C889BB2EE
:100ACC002401496823439BB281630283038410BDD4
:100ADC00EFFF0000FF8F0000DFFF0000026A0C4BED
:100AEC0010B513400384046A0A4BC2691A400B8880
:100AFC001A43094B23400C89240223434C889BB294
:100B0C002402496823439BB2C1638283038410BDD2
:100B1C00FFFE00008FFF0000FFFD0000026A0D4B7E
:100B2C0010B513400384046A0B4BC2691A400B883E
:100B3C001B021A43094B92B223400C892403234312
:100B4C004C889BB22403496823439BB20164828383
:100B5C00038410BDFFEF0000FF8F0000FFDF0000DB
:100B6C0000230380438043600381704730B5036AE0
:100B7C0001249BB28C40A343051C03840823081C4E
:100B8C00183598430DD0043989B2490849190868B9
:100B9C00094B120203400B600B6892B21A430A60B5
:100BAC0030BD490869180B68702083430B600B68D3
:100BBC001A430A60F4E7C046FF8FFFFF416370479A
:100BCC0081637047C1637047016470478269024B4F
:100BDC0013401943018370478FFF00008269044B57
:100BEC001A400B02111C194389B201837047C0468D
:100BFC00FF8F0000C269024B134019438183704779
:100C0C008FFF0000C269044B1A400B02111C1943E0
:100C1C0089B281837047C046FF8F00008269024B06
:100C2C001340194301837047F7FF00008269044B9E
:100C3C001A400B02111C194389B201837047C0463C
:100C4C00FFF70000C269024B1340194381837047C0
:100C5C00F7FF0000C269044B1A400B02111C194328
:100C6C0089B281837047C046FFF700008269024B4E
:100C7C001340194301837047FBFF00008269044B4A
:100C8C001A400B02111C194389B201837047C046EC
:100C9C00FFFB0000C269024B13401943818370476C
:100CAC00FBFF0000C269044B1A400B02111C1943D4
:100CBC0089B281837047C046FFFB00008269024BFA
:100CCC0013401943018370477FFF000083690902B9
:100CDC005B045B0C194389B201837047C269024BF8
:100CEC0013401943818370477FFF0000C3690902D9
:100CFC005B045B0C194389B281837047026A024B17
:100D0C001340194301847047FDFF0000026A044B35
:100D1C001A400B01111C194389B201847047C0465B
:100D2C00DFFF0000026A044B1A400B02111C19432E
:100D3C0089B201847047C046FFFD0000026A044B73
:100D4C001A400B03111C194389B201847047C04629
:100D5C00FFDF00008268044B1340038183689BB261
:100D6C00194301817047C046F7FF0000036A10B5B4
:100D7C0001248C409BB2A3430384036A8A40111C58
:100D8C00194389B2018410BD0B88F0B5002B2BD010
:100D9C00042B4AD0082B00D16DE0056A474A4B88DA
:100DAC002A408E880C890284C769454A36023A402B
:100DBC003243240392B2056A2243424C1B032C405B
:100DCC001C438023A4B25B0192B22343828303842D
:100DDC003D4ACB88C1691B020A408283C26992B228
:100DEC0013439BB28383F0BD046A384A8B8822403C
:100DFC004D880E8902848769354A36013A40324360
:100E0C0092B2046A1A43334B02831C4001232B43D6
:100E1C0023439BB20384CA882F4B81690B40038305
:100E2C0083699BB213430383DDE7056A2B4A4C8825
:100E3C002A408B880E8902848769214A36033A40FE
:100E4C0032431B0292B2056A1A43254B24012B40F4
:100E5C0023439BB2102492B22343028303841A4A85
:100E6C00CB8881691B020A400283826992B21343C8
:100E7C009BB20383B7E7056A1A4A8C882A404B88D1
:100E8C000E890284C769124A36013A40324392B243
:100E9C00056A2243144C1B022C401C438023A4B231
:100EAC005B00234382830384CA880B4BC1690B40CC
:100EBC008383C3699BB21343838394E7FFEF0000E2
:100ECC00FF0C0000FF5F0000FFF30000FEFF0000BE
:100EDC000CFF0000F5FF0000F3FF0000EFFF000027
:100EEC005FFF0000FFFE0000FFF500000023012261
:100EFC00038043808280C380038170474B88F0B5A8
:100F0C005C425C416200574692468A884E46454692
:100F1C00E0B4551E6E1EB5410226751B0E88002EC0
:100F2C004ED0076A4F4EBC46371C664637400C897C
:100F3C0007848669076AB0464B4EBC464746374025
:100F4C00B846464627033743BEB2484F12023243D7
:100F5C001E013B1C67463B4033439BB21026334378
:100F6C0092B202830384424ACB88816957460A4075
:100F7C0002838269190292B20A4392B20283016A15
:100F8C003C4A0A400284866922013B4C016A344087
:100F9C0014433A4AA4B20A4001210A432543174399
:100FAC00ADB2058307848169354A0A4002838269A0
:100FBC0092B2134303831CBC90469946A246F0BDE3
:100FCC000E89076AB2462B4EBC46371C6646374024
:100FDC0007848669076AB046274EBC4647463740A9
:100FEC00B846574646463F013743BFB23A430126FF
:100FFC00224F90466246B4461740624613433B4329
:10100C009BB24646068303841D4ACB8881695646AB
:10101C000A40028382692D0292B21A430283016A4A
:10102C00104A1B020A40028487690F4A016A174062
:10103C0032033E1C16430D4AB6B211401022114326
:10104C00354362010C1C1443ADB2058304848169E1
:10105C00074A0A400283826992B213439BB203830C
:10106C00A9E7C046EFFF0000FF0C00005FFF000087
:10107C00FFF30000FEFF00000CFF0000F5FF000076
:10108C00F3FF0000406B7047806B7047C06B70477C
:10109C00006C70478269044B1340038383699BB2D5
:1010AC00194301837047C046F3FF00008269054B6A
:1010BC0009021340038383699BB2194389B20183EC
:1010CC007047C046FFF30000C269044B1340838392
:1010DC00C3699BB2194381837047C046F3FF00007C
:1010EC00C269054B090213408383C3699BB2194340
:1010FC0089B281837047C046FFF30000C3689BB27E
:10110C00002A02D18B438381704719438181FBE70D
:10111C008182704700690840431E9841C0B27047F5
:10112C00C94389B2018270470369C06882B200204A
:10113C000B4203D011404A1E9141C8B27047C046C1
:10114C00C94389B20182704711434823C152704789
:10115C00C3689BB2002A02D18B4383817047194329
:10116C008181FBE7002904D14268054B1340838041
:10117C007047436808229BB213438380F8E7C0464C
:10118C00F7FF00008268024B134003817047C04692
:10119C00F8FF00008268054B1340194301818368F6
:1011AC0007229BB2134303817047C0468FFF000098
:1011BC0070B5056A60291ED01B4C1B012C400484A1
:1011CC0085691A4C066A254001242543ADB22B4390
:1011DC00174D9BB235402C43A4B2224303830284A7
:1011EC008268144B134019430181836807229BB218
:1011FC001343038170BD104C2C40048486690F4C42
:10120C00056A26408024640026431C03331C2343B8
:10121C000B4C9BB225401024254314012A1C22435D
:10122C0092B203830284DBE7FEFF00000CFF000098
:10123C00F5FF00008FFF0000EFFF0000FF0C000027
:10124C005FFF000010B51B0284681A43FF231C408B
:10125C00224392B2114301818268034B13407722DF
:10126C001343038110BDC04688FF000010B51B025C
:10127C0084681A43FF231C40224392B2114301811C
:10128C008268802392B2DB011343038110BDC046F8
:10129C008268024B13401943018170478FFF000095
:1012AC004268044B1340838043689BB2194381808E
:1012BC007047C0468FFF00008268044B13400381C7
:1012CC0083689BB2194301817047C046F8FF000048
:1012DC008268044B1340038183689BB219430181DC
:1012EC007047C0467FFF000030B58568FF242C4056
:1012FC0021430A431B021A4392B2028130BDC046FD
:10130C00F0B58768094C85693C402143084C066A56
:10131C002C400225FF352C43064D1B0135402A433A
:10132C001A4392B2018104830284F0BDF8FF0000DD
:10133C00FCFC0000DDFF0000002904D14268054BD5
:10134C00134083807047436880229BB21343838091
:10135C00F8E7C0467FFF0000026D0B0C1A405023CB
:10136C00C252026D114389B2C1527047002934D068
:10137C000123002210B488422CD301242407A1425B
:10138C0004D2814202D209011B01F8E7E400A14218
:10139C0004D2814202D249005B00F8E7884201D3B3
:1013AC00401A1A434C08A04202D3001B5C0822438B
:1013BC008C08A04202D3001B9C082243CC08A042FC
:1013CC0002D3001BDC082243002803D01B0901D0E8
:1013DC000909E3E7101C10BC7047002801D000205D
:1013EC00C04307B4024802A14018029003BDC04696
:1013FC00190000000029F0D003B5FFF7B9FF0EBCAF
:10140C004243891A1847C0467047C046F0B55F463C
:10141C0056464D464446F0B44402460083B00F1C79
:10142C00640A360EC50F002E41D0FF2E22D0802329
:10143C001B0400201C43E4007F3E82468046391C7E
:10144C004B007F02C90F7F0A1B0E8B463BD0FF2B34
:10145C0034D0802212041743FF007F3B00215A46F0
:10146C006A40019252460A430F2A63D87A48920086
:10147C0082589746002C3FD1082202239246984668
:10148C00DDE70195404602282AD1019A0125154035
:10149C00FF2300246402DB05600AED071843284390
:1014AC0003B03CBC90469946A246AB46F0BD002C1E
:1014BC0027D10420012282469046C0E7391C4A1EDF
:1014CC0091410231CBE70121002FC8D0381C00F02C
:1014DC00E7F8431F9F4076235B421B1A0021BEE7AF
:1014EC00032800D1AEE001284FD1019842461040AC
:1014FC00C5B200230024CDE70C2303209A46804676
:10150C009DE7201C00F0CCF87626431F9C407642C9
:10151C000023361A9A46984691E780240025E40366
:10152C00FF23B7E75B463C1C01938846AAE73C1CAB
:10153C008846A7E7250C24043A0C240C3F04F61823
:10154C003F0C211C231C794353436F435543FB1819
:10155C000A0C9B18B1469F4202D980225202AD1848
:10156C0009041A04090C521894011B0C611E8C41BD
:10157C00920EED181443AD012C43230105D5012225
:10158C0063080120144081441C434B467F33002BDD
:10159C002DDD600704D00F222240042A00D0043431
:1015AC00220103D52D4B1C404B468033FE2B17DDFF
:1015BC00019B01251D400024FF236BE78020C00305
:1015CC00044208D0074206D1041C3C436402640A5E
:1015DC005D46FF235EE704436402640AFF2359E778
:1015EC000198A4010125640ADBB2054052E77E2371
:1015FC005B424A469B1A1B2B05DD019B01251D40B6
:10160C000024002346E7221CDA404B469E339C40C4
:10161C00231C5C1EA3411343580704D00F221A400D
:10162C00042A00D004335A0105D5019B01251D4025
:10163C00002401232EE701989C010125640A054032
:10164C00002327E78027FF03019B3C43640201250D
:10165C001D40640AFF231DE7881A0008FFFFFFF7EF
:10166C004302590A4300C20F1B0E00207E2B0DDDD6
:10167C009D2B0CDC802000040143952B0ADC96206A
:10168C00C31AD9404842002A00D1081C7047034BAA
:10169C00D018FBE7963B9940F4E7C046FFFFFF7F6D
:1016AC001C2101231B04984201D3000C10391B0A86
:1016BC00984201D3000A08391B09984201D300094A
:1016CC00043902A2105C40187047C04604030202A1
:1016DC00010101010000000000000000802008B59D
:1016EC00C0050121FFF720FD002811D08020C00586
:1016FC000121FFF725FD074B07491868FFF786FE08
:10170C00FFF7AEFF054BC1188020C005FFF756FA56
:10171C0008BDC0461C00002000002041DC05000074
:10172C0008B50120011CFEF7E5FF03200121FEF79F
:10173C00C9FF08BD07B51C2301A803700023437023
:10174C0001238370C370FEF703FE07BDF7B5224F6C
:10175C006846FEF79FFD202301246A4602250026D9
:10176C000093381C03236946157196715371D4711B
:10177C00FEF738FD221C381C0521FEF7CDFD6B460B
:10178C00381C6946154F1C71DC715C710094FEF7B6
:10179C0029FD80236A46381C5B0169461671D57198
:1017AC0054710093FEF71EFD80239B01381C00939F
:1017BC0069466B461E71DD715C71FEF713FD80236B
:1017CC006A46DB01381C69461671D5710093547159
:1017DC00FEF708FDF7BDC0460000024000040240C1
:1017EC0070B5802586B0ED05144B03A901240026A5
:1017FC00281C4B600C800E814E80FFF787F8281C4C
:10180C00211CFFF7F5F86A46602313800C4B281C4B
:10181C006946548001931681FFF722F9281C082190
:10182C00FFF7FCF9281C211CFFF70AF9281C211CC6
:10183C00221CFFF763FC06B070BDC0461F4E0000B3
:10184C00DC05000008B5FFF76BFFFFF77FFFFFF724
:10185C0071FFFFF7C5FF802117484901FEF736FDE0
:10186C00002806D001210A1C1448FEF747FD144A33
:10187C001BE0802110488901FEF728FD002806D0C6
:10188C0001210A1C0D48FEF739FD00220DE08021D4
:10189C00C9010948FEF71AFD0121021C0748002A5C
:1018AC0006D00A1CFEF72AFD064A074B1A60D2E73F
:1018BC00FEF724FDCFE7C0460004024000000240C2
:1018CC000000A0C20000B4421C0000203C4B37B505
:1018DC001968802252000A431A609968394A0A40F2
:1018EC009A601968384A0A401A601968374A0A40DF
:1018FC001A609A6836490A409A600022DA600092AF
:10190C00019218688022520202431A60081C19685E
:10191C0080229202114001910099013100910199AC
:10192C00002904D1009CA021C9018C42EFD1196877
:10193C000A4000D0012201920199012904D0254BC3
:10194C00802212059A6037BD234A042514682C4363
:10195C001460146802252C43146014682143116030
:10196C00596A802252050A435A6280211B4A090196
:10197C0011605168CC06FCD49A689A609A689A6097
:10198C009A689A609968912201409960996812044A
:10199C000A439A601968802252040A431A60196833
:1019AC00074A8801FBD590680321884390609068B2
:1019BC000143916099680C220A400C2AFAD1BEE7C7
:1019CC00003802400CC0FF88FEFFFEEEFFFFFBFF5D
:1019DC00FFFF02FF00ED00E0003C02400070004001
:1019EC00002100F004B80D4B5B58435004310C48F7
:1019FC000C4B42189A42FFF4F6AF0B4A00F003B8B6
:101A0C00002342F8043B094B9A42FFF4F9AFFFF76D
:101A1C005DFF00F00FF8FFF715FF7047E01A0008A4
:101A2C00000000201C0000201C00002020000020D2
:101A3C00FFF7FEBF70B50D4E0D4D0024AD1BAD1064
:101A4C0005D0A300F35801349847A542F9D100F012
:101A5C0035F8084E084D0024AD1BAD1005D0A30081
:101A6C00F35801349847A542F9D170BD000000002D
:101A7C0000000000000000000000000040150008FD
:101A8C003A1500083A1500083015000890140008A3
:101A9C009014000826150008301500089014000852
:101AAC002615000890140008301500088E14000844
:101ABC008E1400088E140008C8150008F8B5C0462E
:101ACC00F8BC08BC9E467047F8B5C046F8BC08BCCC
:041ADC009E4670476B
:101AE000030406080C10182030000000000000005D
:0C1AF000010203040102030406070809B8
:04000005080019EDE9
:00000001FF
